:020000040800F2
:1000000008150020990100089F2C0008451E0008D3
:100010009D2C000855020008E32F00080000000096
:1000200000000000000000000000000001010008C6
:10003000570200080000000045010008C52C000818
:10004000B3010008B3010008B3010008B3010008C0
:10005000B3010008B3010008B3010008B3010008B0
:10006000B3010008B3010008B3010008B3010008A0
:10007000B3010008B3010008B3010008B301000890
:10008000B3010008B3010008B3010008B301000880
:10009000B3010008B3010008B3010008B301000870
:1000A000B3010008512D0008B3010008B301000896
:1000B000B3010008B3010008B3010008551E000891
:1000C000491E00086D1E0008611E0008B3010008EB
:1000D000B3010008B3010008B3010008B301000830
:1000E000B3010008B3010008B3010008DFF80CD029
:1000F00000F09EF800480047B531000808150020C0
:10010000224B19680868B0E8F00F80F30988BFF344
:100110006F8F4FF0000080F311884EF00D0E704786
:100120000000000006480068006880F3088862B696
:1001300061B6BFF34F8FBFF36F8F00DF00BF00BF0B
:1001400008ED00E0EFF30980BFF36F8F0F4B1A68E3
:1001500020E9F00F106008B54FF0500080F31188CF
:10016000BFF34F8FBFF36F8F03F0CCFB4FF0000056
:1001700080F31188BDE8084019680868B0E8F00FFE
:1001800080F30988BFF36F8F704700BF180000200D
:10019000EFF3058070470000064880470648004797
:1001A000FEE7FEE7FEE7FEE7FEE7FEE7FEE7FEE727
:1001B000FEE7FEE74F2D0008ED00000840EA0103CE
:1001C0009B0703D009E008C9121F08C0042AFAD20D
:1001D00003E011F8013B00F8013B521EF9D27047D1
:1001E000D2B201E000F8012B491EFBD27047002279
:1001F000F6E710B513460A4604461946FFF7F0FF26
:10020000204610BD30B50B460146002020220124B7
:1002100009E021FA02F59D4205D303FA02F5491BD4
:1002200004FA02F52844151EA2F10102F1DC30BDEA
:10023000064C074D06E0E06840F0010394E8070033
:1002400098471034AC42F6D3FFF754FFC43C000883
:10025000E43C0008FEE7704772B6FEE710B590F880
:1002600021100024022903D00421816301243DE0F0
:1002700001680A6822F00E020A6001680A6822F02A
:1002800001020A601A4A0168914201D1012121E06C
:10029000174A1432914201D110211BE0144A28322E
:1002A000914201D1891515E0114A3C32914201D1A8
:1002B00089140FE00E4A5032914202D14FF480313E
:1002C00008E00B4A6432914202D14FF4801101E000
:1002D0004FF08071064A083A5160012180F82110E0
:1002E000002180F82010416B01B18847204610BDE5
:1002F0000800024090F82100704700002DE9F84FF7
:100300000026DFF89CB20D460446B14658450FD092
:10031000A44884420CD0A448844209D0A348844213
:1003200006D0A348844203D0BD21A2A002F034FF2E
:1003300028680104090C01D0000C03D0BE219DA047
:1003400002F02AFF6868DFF8A8A200281ED0012862
:10035000FCD01128FAD00228F8D01228F6D0504547
:10036000F4D0A4498842F1D0A3498842EED0A349F1
:100370008842EBD0A2498842E8D0A2498842E5D021
:100380000328E3D0BF218BA002F006FF00E101208B
:1003900000FA06F807EA080747456FD15C450FD019
:1003A000804884420CD08048844209D07F488442EF
:1003B00006D07F48844203D0CD217EA002F0ECFE1F
:1003C0006868A0EB0A02504559D00EDC032875D0AE
:1003D00006DC002853D0012819D0022869D131E069
:1003E000112821D0122864D13AE0B2F5881F46D0F6
:1003F00006DCB2F5803F42D0B2F5801F59D13EE015
:10040000B2F5001F3BD0B2F5041F52D137E0E868C7
:10041000022807D0012805D0032803D0D52165A0E4
:1004200002F0BAFEE8683EE0E868022807D001283A
:1004300005D0032803D0DC215EA002F0ADFEE86801
:10044000001D30E0E868022807D0012805D0032805
:1004500003D0E32157A002F09FFEE868083022E0B5
:10046000E868022807D0012805D0032803D0EA2134
:1004700050A002F091FEE8680C3014E087E0A86814
:1004800080B1012811D0022807D0F72149A002F03D
:1004900083FEA86830B1012807D04FF00809C4F8DE
:1004A000148006E00420814603E04FF00809C4F8F8
:1004B0001080FF2F05D8214605E0FFE74FF0000030
:1004C000F1E704F104014FEA860001D9A0F1200010
:1004D0000B684FF00F0202FA00FC23EA0C0309FA42
:1004E00000FC43EA0C030B606868C0004FD5464827
:1004F000816941F001018161806926F0030100F00A
:100500000100009041480B189868B1074FEA117C30
:1005100002FA0CF290435C4501D100210FE0214921
:100520008C4201D101210AE01F498C4201D10221F4
:1005300005E01E498C4201D1032100E0042101FAAB
:100540000CF1014399606868C0023148016801D527
:10055000394300E0B9430160686880022D480168B2
:1005600001D5394300E0B9430160686880032A4837
:10057000016801D5394300E0B94301606868C003F0
:100580002648016801D5394300E0B9430160761C73
:100590002F6837FA06F07FF4FAAEBDE8F88F000056
:1005A00000080140000C014000100140001401400F
:1005B000001801402E2E2F447269766572732F53F6
:1005C000544D3332463178785F48414C5F4472690C
:1005D0007665722F5372632F73746D333266317880
:1005E000785F68616C5F6770696F2E630000000060
:1005F0000000111000002110000031100000121046
:1006000000002210000032100010024000000140E3
:10061000080401400C0401400404014000040140AE
:10062000014880687047000008000020704770474C
:100630002DE9F041016804464A694E6890F83E0091
:100640000025D743FA050BD4F243D20508D46FF442
:10065000807201254A6121680A6842F400420A60FA
:10066000B90508D4F143C90505D422686FF40071B7
:1006700045F002055161790525D4F143C90522D41D
:10068000638D94F83D10226B202808D13BB92129B5
:1006900010D029290ED0282901D1212A0AD0226878
:1006A0006FF48061516145F00405102806D04028A0
:1006B00004D008E0204602F045F804E02068016814
:1006C00041F400710160380508D4F043C00505D439
:1006D00021686FF4006045F008054861002D07D0DF
:1006E000206C284320642046BDE8F04101F02ABC7C
:1006F000BDE8F0812DE9F047026800215368C66A21
:1007000090F83E4090F83D50102C12D0402C10D064
:10071000046C002C7DD05469E443A6077AD4DE43F0
:10072000B60577D4036C03B19169BDE8F04701F0D9
:10073000E5BF976951694FF42A0CC9435FEAC17854
:100740004FF02A4904D066452AD04E4528D010E003
:10075000DE43B6050DD4C16A614501D1012103E034
:10076000C16A494501D10821C162BDE8F04701F0E5
:100770002BBF0E0716D4DE43B60513D4416CC9B2A5
:100780001161416B09B1896A29B9816B002907D0D0
:10079000896A002904D00068416841F40061416021
:1007A000BDE8F0878E0706D4DE43B60503D4BDE866
:1007B000F04701F05DBEFE43526876074FEA0252F1
:1007C0001DD4002AECDB0A0608D4DA43520505D40E
:1007D000490705D5BDE8F04701F0EEBD4907DFD474
:1007E000D9438905DCD4212D05D0402CD8D1BDE8D2
:1007F000F04701F02FBFBDE8F04701F09BBD002A94
:10080000CEDB4A060BD4DA43520508D4490708D593
:1008100001E00DE00EE0BDE8F04701F0C3BC490780
:10082000BED4D9438905BBD4BDE8F04701F04DBC27
:10083000916970E7E10606D4D943890503D4BDE880
:10084000F04701F0C7BF2821212D27D0292D25D021
:10085000650655D4DD436D0552D4640752D590F832
:100860003D30448D002C9BD01269446A2270426A4C
:10087000521C4262428D521E4285428D002A8FD107
:100880002A2B8DD10268536823F48063536022229F
:10089000026380F83D1000F0A1FA81E7250623D419
:1008A000DD436D0520D4640720D590F83D30448D9C
:1008B000002CF2D0446A24781461426A521C4262CD
:1008C000428D521E4285428D002AE6D1292BE4D169
:1008D0000268536823F4806353602122026380F826
:1008E0003D1000F08DFA5BE76107D6D4D943890546
:1008F000D3D4418D0029D0D0416A097811610AE032
:100900006107CAD4D9438905C7D4418D0029C4D011
:100910001169426A1170416A491C4162418D491E48
:1009200041853DE700680649884207D10549012015
:10093000087002220449054800F064BA70470000BC
:100940000058004080000020830000203403002075
:1009500070B504007ED089492068884207D0884954
:10096000884204D040F2DB1186A002F015FC6068DA
:100970009249401E884204D94FF4EE7181A002F0E2
:100980000BFCA0684FF4804530B1A84204D040F27F
:10099000DD117CA002F000FCE068800A04D04FF476
:1009A000EF7178A002F0F8FB2069A84207D0B0F5FB
:1009B000404F04D040F2DF1172A002F0EDFB6069FD
:1009C00030B1012804D04FF4F0716EA002F0E4FBC6
:1009D000A06930F0FE0004D040F2E11169A002F0FD
:1009E000DBFBE06930B1402804D04FF4F17165A021
:1009F00002F0D2FB206A30B1802804D040F2E3112B
:100A000060A002F0C9FB94F83D00002520B984F8ED
:100A10003C50204600F078F9242084F83D002068FE
:100A2000016821F0010101602068016841F4004182
:100A300001602068016821F40041016000F0C6FCFB
:100A40005F4A6168914202D85E4901E002E05E4976
:100A5000884201D2012070BD5C492368B0FBF1F1EE
:100A60005E6826F03F060E435E606368934206D9D7
:100A70004FF4967359434FF47A73B1FBF3F1236843
:100A8000491C1E6A26F03F06314319626168914293
:100A900010D84900401EB0FBF1F2521CC2F30B0209
:100AA000042A01D2042023E0B0FBF1F0401CC0F383
:100AB0000B001DE0A368EBB301EBC10202EB0116D2
:100AC000421EB2FBF6F2521C42F4804212054AD09A
:100AD0008BB301EBC10202EB0111401EB0FBF1F040
:100AE000401CC0F30B0040F4804000BF40F40040C5
:100AF0002168CA694CF6FF739A431043C861D4E970
:100B00000701084321680A6822F0C0021043086008
:100B1000D4E90310084321688A6848F2FF339A43F6
:100B200010438860D4E9050108432168CA6822F0AF
:100B3000FF0201E010E018E01043C860206801687F
:100B400041F0010101602564202084F83D00256307
:100B500084F83E50002070BD01EB4106421EB2FBFE
:100B6000F6F2521CB2E70120C2E701EB4101401E40
:100B7000B0FBF1F0401CC0F30B00B7E7005400409D
:100B8000005800402E2E2F447269766572732F53E1
:100B9000544D3332463178785F48414C5F44726936
:100BA0007665722F5372632F73746D3332663178AA
:100BB000785F68616C5F6932632E63007F1A06009C
:100BC000A086010080841E0000093D0040420F0005
:100BD00070477047704700002DE9F84F1F46904658
:100BE0008A460446DDF82890FFF71AFD054694F87A
:100BF0003D0020287FD1192301224049204600953D
:100C000001F0C2FE002876D194F83C00012872D091
:100C1000012084F83C0020680168C90703D10168FD
:100C200041F0010101602068016821F40061016068
:100C3000212084F83D00102084F83E000026266420
:100C4000C4F824806785608D20852D48E0622B469E
:100C50004A465146204601F01FFB90B92068416981
:100C60008069009036E02A464946204601F032FF6E
:100C700050B1206C042804D12068016841F400714F
:100C800001600120BDE8F88F606A21680078086182
:100C9000606A401C6062618D491E6185218D491E1C
:100CA00089B2218522685369DB435B070BD451B1BC
:100CB00000781061606A401C6062608D401E608533
:100CC000208D401E20852A464946204601F030FEF0
:100CD0000028CED1208D0028C5D154F83D0B0168E5
:100CE00041F400710160202004F81E09E677667760
:100CF0000020C7E7FFE70220C4E700000200100061
:100D00000000FFFF7047704730B585B000210091AB
:100D10000191029103912D4D03682D4C1221032264
:100D20002C48AB4225D1A36943F00803A361A36912
:100D3000039203F008030493C023CDE90031694610
:100D4000FFF7DCFAE06940F40010E061E06900229E
:100D500000F40010049005211F2000F047F91F2027
:100D600000F012F900220521202000F03FF9202098
:100D700028E0194DAB4227D1A36943F00803A361D2
:100D8000A369039203F0080304934FF44063CDE991
:100D900000316946FFF7B2FAE06940F48000E06193
:100DA000E069002200F4800004900521212000F079
:100DB0001DF9212000F0E8F800220521222000F092
:100DC00015F9222000F0E0F805B030BD00540040D5
:100DD00000100240000C014000580040054A016824
:100DE000914206D1044A012111700222034900F008
:100DF00009B87047005800408000002083000020A0
:100E00007047000010B590F83D30202B34D161B10F
:100E10005AB190F83C30012B2ED0012380F83C30A1
:100E200003681C68E40702D005E0012010BD1C68BF
:100E300044F001041C6003681C6824F400641C6016
:100E4000222380F83D30202380F83E3000230364C5
:100E500041624285418D01850849C16201680A6885
:100E600042F480620A6080F83C300068416841F4D6
:100E7000E0614160002010BD022010BD0000FFFFB6
:100E800002488168027811448160704708000020A0
:100E9000074810B5016841F010010160032000F01F
:100EA000F5F80F2000F006F800F04AF8002010BD19
:100EB0000020024030B505461C4887B0816941F4E6
:100EC00000618161806906A900F40060009001A8BA
:100ED00000F032FA00F08AFA1549164AB0FBF1F137
:100EE0001548491E0260416040F2E7320021C0E926
:100EF00003218160816100F0F9FC040012D10E48E9
:100F000000F088FD04000DD1192000F03DF8102DEF
:100F100007D200222946192000F068F8074805602A
:100F200000E0012407B0204630BD00000010024060
:100F300040420F00002C0140D00300200C00002094
:100F40000F4808B5816941F001018161816901F0B3
:100F500001010091C16941F08051C161C069002265
:100F600000F0805000900F21901E00F03FF80548DF
:100F7000416821F0E06141F00071416008BD00006E
:100F8000001002400000014010B5040003D5BD214F
:100F900007A002F001F9002C09DB04F01F01012079
:100FA00088406109890001F1E021C1F8000110BD0C
:100FB0002E2E2F447269766572732F53544D33323F
:100FC000463178785F48414C5F4472697665722F8C
:100FD0005372632F73746D3332663178785F686152
:100FE0006C5F636F727465782E63000070B5154690
:100FF0000C460646102A03D3A92114A002F0CCF80F
:10100000102C03D3AA2111A002F0C6F81E480068D4
:10101000C0F30223C3F107022046042A00D90422A8
:10102000191D072901D2002300E0DB1E012404FA68
:1010300002F1491E014099409C40641E2C4021430E
:101040003046BDE8704001F0DDBF00002E2E2F4479
:101050007269766572732F53544D33324631787806
:101060005F48414C5F4472697665722F5372632FFB
:1010700073746D3332663178785F68616C5F636F6B
:10108000727465782E6300000CED00E010B5044624
:1010900007280BD0062C09D0052C07D0042C05D02E
:1010A000032C03D0912108A002F076F8154904F032
:1010B000070208684FF6FF03184040EA0220124A70
:1010C0001043086010BD00002E2E2F447269766513
:1010D00072732F53544D3332463178785F48414C08
:1010E0005F4472697665722F5372632F73746D3328
:1010F00032663178785F68616C5F636F72746578AF
:101100002E6300000CED00E00000FA052DE9F04729
:101110000F46050078D02868C1070AD1810708D496
:10112000410706D4000704D440F236316FA002F024
:1011300033F847B1012F06D0022F04D040F23731E7
:101140006AA002F029F8774E306800F00700B84234
:1011500009D2306820F0070038433060306800F072
:101160000700B84277D128686F4C810729D540071E
:1011700003D5606840F4E06060602878000703D51C
:10118000606840F460506060A868A0B1802812D008
:10119000902810D0A0280ED0B0280CD0C0280AD09B
:1011A000D02808D0E02806D0F02804D040F25D31E5
:1011B0004EA001F0F1FF6068A96820F0F00008433C
:1011C00060602878C00737D0686868B101281CD0F3
:1011D00002281DD04FF4597144A001F0DDFF68686A
:1011E000012812D0022813D020688007002832DAA4
:1011F0006068696820F0030008436060FFF710FA38
:10120000804641F2883910E025E020688003EDE750
:1012100020688001EAE700BFFFF702FAA0EB0801AF
:10122000494502D90320BDE8F0876068696800F08D
:101230000C00B0EB810FEFD1306800F00700B8422E
:101240000BD9306820F0070038433060306800F078
:101250000700B84201D00120E5E728784FF4806606
:1012600040074FF4A0674FF4C0684FF4E06914D50D
:10127000E86860B1B0420AD0B84208D0404506D014
:10128000484504D040F2A23118A001F085FF606803
:10129000E96820F4E060084360602878000715D50D
:1012A000286960B1B0420AD0B84208D0404506D0A3
:1012B000484504D040F2A9310CA001F06DFF6068F0
:1012C000296920F4605040EAC100606000F09EF897
:1012D0006168164AC1F30311515CC84014490860A3
:1012E00014480068FFF7E6FD00209CE72E2E2F44EF
:1012F0007269766572732F53544D33324631787864
:101300005F48414C5F4472697665722F5372632F58
:1013100073746D3332663178785F68616C5F7263C5
:10132000632E63000020024000100240923C00083F
:10133000140000200C00002070B50D46040004D1FC
:1013400040F2215111A001F027FF25B940F22251AE
:101350000EA001F021FF0F2020601A48416801F023
:1013600003016160416801F0F001A160416801F48E
:10137000E061E16040684FF4E06101EAD000206183
:101380001148006800F00700286070BD2E2E2F4421
:101390007269766572732F53544D333246317878C3
:1013A0005F48414C5F4472697665722F5372632FB8
:1013B00073746D3332663178785F68616C5F726325
:1013C000632E6300001002400020024004480549DB
:1013D00000684968044AC1F30221515CC840704763
:1013E0001400002000100240A23C000804480549F7
:1013F00000684968044AC1F3C221515CC840704783
:101400001400002000100240A23C00080E4A51685F
:101410000E4801F00C03042B11D0082B0FD10C48FF
:10142000C1F38343C903C05C0AD55168084AC1F3BC
:101430004041921E515C054A5043B0FBF1F07047A9
:1014400004494843704700000010024000127A002F
:10145000823C000800093D002DE9F84F04007DD0D2
:10146000FA4EFB4D20684FF0010A4FF000084FF490
:10147000803960B1C1070DD1810762D401076ED4F4
:1014800040076DD440F26511F2A001F085FE20788E
:10149000C00753D060684FF4A02740B1484506D03C
:1014A000B84204D040F26B11EAA001F075FE686802
:1014B000C0F38100012807D06868C0F381000228CA
:1014C00009D16868C00306D52868800336D56068EE
:1014D0000028C4D032E06068484503D1286840F451
:1014E000803009E008B1B8420DD0286820F480307F
:1014F0002860286820F480202860606888B1FFF7A1
:101500008FF8074609E0286840F480202860E5E766
:10151000FFF786F8C01B642877D828688003F7D5C2
:101520000CE0FFF77DF8074605E000BFFFF778F80D
:10153000C01B6428F0D828688003F7D4207880077F
:101540004ED5206930B1012804D040F29F11C1A0CE
:1015500001F022FE60691F2808D902E096E042E00F
:101560007BE04FF4D071BBA001F016FE686810F06C
:101570000C0F07D06868C0F38100022809D16868A1
:10158000C00306D42868800714D5206901287DD1BE
:1015900010E02069B0B1C6F800A0FFF741F8074697
:1015A00005E000BFFFF73CF8C01B0228B4D828684C
:1015B0008007F7D52868616920F0F80040EAC1008B
:1015C00028600DE0C6F80080FFF72AF8074604E01F
:1015D000FFF726F8C01B02289ED828688007F7D49A
:1015E0002078000736D5A94FA06920B3012806D07E
:1015F0004FF4F07197A001F0CFFDA069D8B1C7F802
:1016000000A0FFF70DF8074605E054E1FFF708F8E2
:10161000C01B02288ED8686A8007F7D59C484FF413
:10162000FA510068B0FBF1F0009000BF0098411E35
:101630000091FAD20EE0C7F80080FEF7F1FF0746EE
:1016400005E000BFFEF7ECFFC01B0228AED8686AB9
:101650008007F7D4207840076ED5E068002740B1B6
:10166000012806D0052804D040F20F2179A001F00E
:1016700093FDE869C00008D4E86940F08050E86153
:10168000E869012700F08050009000E027E18148E0
:101690000168C90512D4016841F480710160FEF748
:1016A000BFFF834606E000BFFEF7BAFFA0EB0B00CA
:1016B000642891D877480068C005F5D5E06801280E
:1016C0000AD008B1052811D0286A20F0010028624C
:1016D000286A20F0040002E0286A40F00100286235
:1016E000E068A8B1FEF79CFF83460DE0286A40F051
:1016F00004002862F0E700BFFEF792FFA0EB0B01A9
:1017000041F28830814285D8286A8007F4D50EE0FE
:10171000FEF786FF834607E0FEF782FFA0EB0B0192
:1017200041F28830814291D8286A8007F4D41FB1F1
:10173000E86920F08050E861E06900287ED0012847
:1017400009D0022807D040F2AD2142A001F024FDCB
:10175000E069002872D06868C0F381000228E0695F
:101760006DD0022805D0C6F86080FEF759FF044608
:10177000A4E0206A30B1484504D040F2B62135A03B
:1017800001F00AFD606A70B3B0F5802F2BD0B0F580
:10179000002F28D0B0F5402F25D0B0F5801F22D0E3
:1017A000B0F5A01F1FD0B0F5C01F1CD0B0F5E01FD2
:1017B00019D0B0F5001F16D0B0F5101F13D0B0F53A
:1017C000201F10D0B0F5301F0DD0B0F5401F0AD04B
:1017D000B0F5501F07D0B0F5601F04D040F2B7211C
:1017E0001CA001F0D9FCC6F86080FEF719FF07467F
:1017F00005E000BFFEF714FFC01B02285BD8286875
:101800008001F7D4206A48450FD1A06838B1B0F5FF
:10181000003F04D040F2CD210EA001F0BDFC68686D
:10182000A16820F4003008436860D4E90801084347
:10183000696821F474110843686001E051E041E0F7
:10184000C6F860A0FEF7ECFE04462AE00000424223
:10185000001002402E2E2F447269766572732F534A
:10186000544D3332463178785F48414C5F44726959
:101870007665722F5372632F73746D3332663178CD
:10188000785F68616C5F7263632E6300800442421C
:101890001400002000700040FEF7C2FE001B02286A
:1018A00009D828688001F7D51BE000BFFEF7B8FE15
:1018B000001B022802D90320BDE8F88F28688001A8
:1018C000F4D40EE00128F7D06868226A00F4803171
:1018D000914204D1616A00F47010884201D0012065
:1018E000EAE70020E8E770477047000010B5040001
:1018F00045D03649206888420DD0B0F1804F0AD0DB
:101900003349884207D03349884204D040F213114A
:1019100031A001F041FCA06860B110280AD0202855
:1019200008D0402806D0602804D04FF48A712AA03D
:1019300001F032FC206950B1B0F5807F07D0B0F5DE
:10194000007F04D040F2151123A001F025FCE068CF
:101950004FF6FE71401E884204D94FF48B711EA0D1
:1019600001F01AFCA06930B1802804D040F21711B0
:1019700019A001F011FC94F83D0010B107E001201E
:1019800010BD002084F83C00204600F041F8022001
:1019900084F83D00211D206801F0E0F9012084F861
:1019A000460084F83E0084F83F0084F8400084F844
:1019B000410084F8420084F8430084F8440084F82D
:1019C000450084F83D00002010BD0000002C0140BF
:1019D00000040040000800402E2E2F4472697665F6
:1019E00072732F53544D3332463178785F48414CEF
:1019F0005F4472697665722F5372632F73746D330F
:101A000032663178785F68616C5F74696D2E63004F
:101A1000704700002DE9F041074600681A4C1B4D45
:101A20001B4E4FF08048A0420AD0404508D0A84243
:101A300006D0B04204D04FF4E87116A001F0ACFB20
:101A400097F83D00012802D00120BDE8F081022076
:101A500087F83D003868C16841F00101C16038680D
:101A6000A04205D0404503D0A84201D0B04204D1E5
:101A7000816801F00701062903D0016841F00101E6
:101A800001600020E1E70000002C0140000400405C
:101A9000000800402E2E2F447269766572732F5312
:101AA000544D3332463178785F48414C5F44726917
:101AB0007665722F5372632F73746D33326631788B
:101AC000785F68616C5F74696D2E630070472DE903
:101AD000F04104460068C66805694FF00007A90791
:101AE00013D5B10711D5F91E0161012020772068B7
:101AF00080698007204602D0FFF7E8FF04E000F08D
:101B00007EF8204600F07CF82777680716D5700726
:101B100014D521686FF00400086102202077206846
:101B2000806910F4407F204602D0FFF7CFFF04E029
:101B300000F065F8204600F063F82777280715D5F0
:101B4000300713D521686FF0080008610420207762
:101B50002068C0698007204602D0FFF7B7FF04E085
:101B600000F04DF8204600F04BF82777E80616D530
:101B7000F00614D521686FF0100008610820207766
:101B80002068C06910F4407F204602D0FFF79EFF16
:101B900004E000F034F8204600F032F82777E80738
:101BA00008D0F00706D021686FF0010008612046D8
:101BB00000F028F8280608D5300606D521686FF011
:101BC000800008612046FFF78EFE680608D5700683
:101BD00006D521686FF040000861204600F01CF82F
:101BE000A8060AD5B00608D521686FF02000086164
:101BF0002046BDE8F041FFF777BEBDE8F0817047B1
:101C00007047000000680349884201D1FFF738B9E6
:101C100070470000002C01407047000070B50400C0
:101C200020D0A06931490028314A324B20681BD0AE
:101C300088420AD0904208D0984206D04FF4B7713B
:101C40002DA001F0A9FAA069C8B1A069B0F5807F04
:101C500015D0B0F5007F12D0B0F5407F0FD040F224
:101C60006F1109E0012070BD884208D0904206D073
:101C7000984204D040F273111FA001F08DFAA068C1
:101C800038B1B0F5805F04D040F275111AA001F0B0
:101C900083FA94F84100002520B984F8405020468A
:101CA00000F048F8242084F841002068C16821F43D
:101CB0000051C160204601F0B5F82068016921F4A7
:101CC000904101612068416921F02A014161206849
:101CD000C16841F40051C1606564202084F841006E
:101CE00084F842006563002070BD000000380140A8
:101CF00000440040004800402E2E2F447269766553
:101D000072732F53544D3332463178785F48414CCB
:101D10005F4472697665722F5372632F73746D33EB
:101D200032663178785F68616C5F756172742E63BA
:101D30000000000030B585B00024009401940294A6
:101D4000039400681449884224D11448816941F4FD
:101D500080418161816901F480410491816941F090
:101D60000401816180690E4D00F0040004904FF47D
:101D700000700090022001900320039069462846DD
:101D8000FEF7BCFA2815CDE90004694628460294FE
:101D9000FEF7B4FA05B030BD003801400010024033
:101DA000000801402DE9F843044690F841009846A8
:101DB00016460D46202802D00220BDE8F88385B1E2
:101DC0007EB100206064212084F84100FEF728FCE9
:101DD000A6848146E684A0682027B0F5805F02D003
:101DE00003E00120E9E7206910B12E4600250EE04E
:101DF00000260CE08021204601F0BAF8A8B9C6B14F
:101E000016F8010B21684860E08C401EE084E08CED
:101E10004B464FF00002CDF800800028EAD14FF089
:101E20004001204601F0A4F840B184F8417003203D
:101E3000C3E735F8020BC0F30800E3E784F841700C
:101E40000020BAE7FEE700000148FEF7F1BB000002
:101E5000E00200200148FEF74DBC0000E002002037
:101E60000148FEF7E5BB0000340300200148FEF7FF
:101E700041BC00003403002038B5406A002190F8CE
:101E80003D202B4B46F2A8141B68B3FBF4F3C3EBC5
:101E9000C30303EB830300933BB15B1E0093036812
:101EA0001B689B0505D5009BF6E7036C43F02003F8
:101EB0000364436B03B19962836B03B19962036856
:101EC0001C6824F480641C604185436B03B1596332
:101ED000836B03B1596303681C6824F001041C6020
:101EE00090F83D402023602C0BD0282434EA0202D5
:101EF0000FD080F83D3080F83E1000BFFEF712FD95
:101F000038BD80F83D3080F83E100164FEF78EFB4E
:101F100038BD0268136843F0010313600268136858
:101F200043F480631360016380F83D40E6E70000FE
:101F30001400002000684169C943090601D400214A
:101F40000161704770B5044690F83D0094F83E106A
:101F5000102901D0402906D1222804D121680A681D
:101F600022F400620A60282131EA00024FF00005E5
:101F70004FF0200626D021684968090505D460285D
:101F800003D084F83D6084F83E50256320684168A2
:101F9000090537D5416821F400614160606B90F814
:101FA00021203C49012A11D04163606BFEF756F9AC
:101FB00038B32068016821F00101016084F83D60B8
:101FC000606B1CE0256384F83D10DFE7A06B416384
:101FD000A06BFEF743F9A0B120684169C9434906E7
:101FE00005D40069616A0870606A401C60622068FC
:101FF000016821F00101016084F83D60A06B416B34
:10200000884710E094F83D10602910D04169C94319
:10201000490605D40069616A0870606A401C606204
:102020002046FEF77FFC206CC1071CD115E084F828
:102030003D6025644169C943490605D40069616A68
:102040000870606A401C60622068016821F001012C
:1020500001602046FEF7EAFAE5E7810703D441076D
:1020600001D4000704D52068416821F4E061416093
:1020700094F83D00216C49070BD5282809D1064862
:10208000E062256384F83D6084F83E502046FEF708
:102090009FFD70BD791E00080000FFFF01684A69BE
:1020A000D24352050FD46FF480624A61002140F898
:1020B000301F202242738173026942F004020261E0
:1020C0000173012070470020704710B5C26A438D2C
:1020D0000168042B06D0438D032B08D0438D022BBF
:1020E0001DD012E04A6822F480624A600CE04B681E
:1020F00023F480634B60042A06D0022A04D00168CE
:102100000A6822F480620A6001680969426A1170F3
:10211000416A491C4162418D491E418510BD012A19
:1021200034D0102A32D0042A34D0022A32D00B689C
:1021300043F400730B6001680969436A1970416ACE
:10214000491C4162438D5B1E438503681B690B700C
:10215000416A491C4162418D491E418501684B68B5
:1021600023F440734B60202180F83D1090F83E30FE
:102170000021402B80F83E1010D0082A02D0202ADF
:1021800000D012210163FEF724FD10BD0B6823F47B
:102190008063CFE70B6843F48063CBE70163FEF70E
:1021A000B1FD10BD38B590F83D10222910D1C36A99
:1021B000418D03290DD901680969426A1170416A8C
:1021C000491C4162418D491E4185418D032906D03C
:1021D00038BDC26A022A02D0012906D029B100689E
:1021E000416821F48061416038BD2A4A46F2A81452
:1021F00000211268B2FBF4F202EB82020092026844
:102200002024009D6D1E009526D01568AD05F8D4DC
:10221000156825F4806515600268556825F4E06549
:10222000556002681269456A2A70426A521C42620D
:10223000428D521E428580F83D4090F83E2080F845
:102240003E10402A21D0082B02D0202B00D0122192
:102250000163FEF7BEFC38BD036C43F0200303644A
:10226000536823F4E063536002681269436A1A708A
:10227000426A521C4262428D521E428580F83D40A5
:1022800080F83E10FEF74EFB38BD0163FEF73AFDC5
:1022900038BD000014000020F8B50446C06A1E4690
:1022A0000D461746082807D0012805D010F5803FB5
:1022B00002D0206B122804D12068016841F480719B
:1022C0000160134600224FF001112046009600F0F5
:1022D0005BFB40B120680068C00502D54FF4007078
:1022E00020640320F8BD2069B0F5804F0ED0062091
:1022F000216800EAD51040F0F000086133463A4604
:102300000B49204600F088FB78B902E005F0FE009A
:1023100000E0E8B221680861054933463A46891F62
:10232000204600F079FB0028DCD00120F8BD000039
:102330000800010010B5C26A90F83D1021290BD1A8
:10234000418D51B1416A026809781161416A491CA5
:102350004162418D491E418510BD20230021082A7C
:1023600013D0202A11D012F5803F0ED00268546895
:1023700024F4E06454601122026380F83E1080F877
:102380003D3000BFFEF726FC10BD0268546824F4FF
:10239000E06454600268146844F4007414600163DB
:1023A00080F83D3090F83E2080F83E10402AE9D178
:1023B000FEF7A9FC10BD000010B590F83D1090F894
:1023C0003E30C26A048DB4B1212903D0402B11D113
:1023D00022290FD1418DE1B390F83E10402942D01F
:1023E000416A026809781161416A491C4162418D64
:1023F000491E418510BD2129E8D120230021082A4A
:1024000013D0202A11D012F5803F0ED002685468F4
:1024100024F4E06454601122026380F83E1080F8D6
:102420003D3000BFFEF7D6FB10BD0268546824F4AF
:10243000E06454600268146844F40074146001633A
:1024400080F83D3090F83E2080F83E10402AE9D1D7
:1024500000E002E0FEF757FC10BD0068416821F47F
:102460008061416010BDBDE8104000F0F3B800008D
:1024700078B590F83E50C26A046B90F83D60002336
:102480000168222E73D1066D0EB9402D6FD0056DF7
:102490001DB90569B5F5404F1BD0458D95B3468DE7
:1024A000484D012E20D0448D022C4DD00C6844F4B0
:1024B00080640C6001684C68240579D5AA4273D009
:1024C000012A71D0082A6FD0102A6DD0202A6BD033
:1024D0006EE04A698A6900920A6842F480720A6072
:1024E000016D491C016578BDAA4214D10A6822F425
:1024F00080620A6001684A68120504D50A6822F4FD
:10250000806217E0FFE74A698A6900920A6842F42C
:1025100000720A6050E0082A10D0202A0ED0122C37
:102520000AD0042A03D0022A01D0102AE6D10A6870
:1025300042F480620A603BE0012ADFD00A6822F49C
:1025400080620A600168DEE7042A11D0022A0FD0F7
:10255000102A0DD00C6844F400640C6001684C69CA
:102560008C6900940C6824F480640C6008E025E019
:102570000C6844F480640C6001684C6989690091BE
:1025800001684C68240517D5AA4207D0012A05D056
:10259000082A03D0102A01D0202A0DD14A6842F41B
:1025A00080524A6008E0FFE74A6842F480524A607D
:1025B00001684A6989690091036578BD486988693D
:1025C000009078BD0000FFFF90F83E10402910D029
:1025D0000169B1F5804F19D0016DA9B3016D0129D1
:1025E00010D1416C5FF0F10201F4407142EAD11167
:1025F00006E0016D0029416C05D0C9B241F001012E
:1026000000680161704701F0FE01F9E790F83D10A4
:102610002129416C09D0C9B241F001010268116160
:10262000416B29B1896A49B902E001F0FE01F5E781
:10263000816B0029E6D0896A0029E3D000684168EF
:1026400041F4006141607047FFE7416CF02201F402
:102650004071CBE710B590F83D10026D4AB1026DA4
:10266000012A14D0026D022A16D0BDE81040FFF7EF
:1026700061BCC16C0129816C02D0C1F3072108E063
:102680000268C9B21161016D891C016510BD816CC0
:10269000C9B20268116123E022291CD0428D0AB11F
:1026A000212920D0428D002AF0D12129EED10168C4
:1026B0004A6822F4E0624A6001680A6842F40072E3
:1026C0000A6000210163202280F83D2080F83E103E
:1026D000FEF719FB10BD01680A6842F480720A60B7
:1026E000016D491CD1E7416A026809781161416AAC
:1026F000491C4162418D491E418510BD38B50C46CB
:1027000090F83D2000212825954302680B4605D00E
:1027100051699169009180F83C3038BD556825F4C5
:1027200080655560E243540700D50121120601D5AA
:10273000828900E0028B80F83C3092B2FDF777FF8F
:1027400038BD00002DE9F04190F83D300446C26AE2
:10275000002120261E4F00686FF48065082A01D0F2
:10276000202A01D1282B04D0212B17D04561BDE8A8
:10277000F081E762426822F4E062426020684561CD
:102780002068026822F480620260216384F83D6060
:1027900084F83E102046FEF71BFAE8E7E7622122A4
:1027A000226384F83D6084F83E10416821F4E061C2
:1027B0004160206845612068016821F48061016002
:1027C0002046FFF7B7FB2046FEF71AFBCFE70000D5
:1027D0000000FFFFF8B590F83D60044600684168CE
:1027E00021F4E061416020680025416900910168A1
:1027F00041F0010101602068016821F480610160FD
:1028000020684168090520D5474F222E48D02A2E3E
:1028100046D0616B096849686185618D19B1216C89
:1028200041F004012164416821F400614160606B62
:10283000FDF760FD012808D0606B4763606BFDF712
:102840000DFD10B1606B416B8847608D08B3206847
:102850004169C943490708D40069616A0870606A20
:10286000401C6062608D401E608520684169C943DC
:10287000490608D40069616A0870606A401C606299
:10288000608D401E6085608D18B1206C40F00400A2
:102890002064206C00B32046BDE8F840FFF752BB2F
:1028A000A16B096849686185618D19B1216C41F09E
:1028B00004012164416821F400614160A06BFDF7CF
:1028C00019FD0128C1D0A06B4763A06BFDF7C6FCC2
:1028D0000028BAD0A06BB6E72A2E06D1256328209F
:1028E00084F83D002046FEF779FA94F83D10202048
:1028F00028290DD0216B222901D0222E07D1256352
:1029000084F83D0084F83E502046FEF767FAF8BD93
:102910000649E162256384F83D0084F83E50204674
:10292000FEF756F9F8BD0000791E00080000FFFF11
:1029300070B516460D4604461EE02046FFF7AEFB76
:1029400008B1012070BD681C16D0FDF769FE801B20
:10295000A84200D885B920684069C04340070BD51C
:10296000002044F8300F20216173A073216941F0E9
:10297000200121612073E4E720684069C0434007DB
:10298000DBD4002070BD00002DE9F04798461746C3
:102990000D460446C1F30746DDF820902AE000BF4B
:1029A000B8F1FF3F26D0FDF73BFEA0EB0901414502
:1029B00002D8B8F1000F1DD12068012E16D0806911
:1029C00025EA00000004000C12D00020B84211D10A
:1029D000002044F8300F20216173A073216941F079
:1029E0002001216120730120BDE8F0874069E7E7FD
:1029F0000120EBE72068012E0AD0806925EA00005B
:102A00000004000C06D00020B842C9D00020EBE73B
:102A10004069F3E70120F7E72DE9F04798461646AD
:102A20000D4604464FF000094FF0200AC1F3074756
:102A300023E020684069C043400515D42068016840
:102A400041F40071016021686FF480604861C4F84E
:102A5000309084F83DA084F83E90216C41F0040150
:102A6000216484F83C9021E0701C06D0FDF7D8FD6D
:102A7000A0EB0800B04203D816B1012F1FD021E00F
:102A80002068012F15D0806925EA00000004000CA1
:102A900018D000BF44F8309F84F80DA084F80E9041
:102AA000216941F02001216184F80C900120BDE8EA
:102AB000F087406925EA00000004000CEAD1206894
:102AC000406901E02068806925EA00000004000CEC
:102AD000AFD1ECE770B516460D4604461EE0204621
:102AE000FFF7DCFA08B1012070BD681C16D0FDF7B5
:102AF00097FD801BA84200D885B920684069C04373
:102B000000060BD5002044F8300F20216173A0731C
:102B1000216941F0200121612073E4E720684069C8
:102B2000C0430006DBD4002070BD000010B58EB09D
:102B30001C220B496846FDF741FB0021684600F066
:102B400065FB084C06491C2220601C3107A8FDF7D4
:102B500035FB002107A800F059FB60600EB010BDE6
:102B6000483C0008000000200D4808B5816941F08C
:102B700020018161816901F020010091816941F0AA
:102B800008018161816901F008010091816941F0CA
:102B900004018161806900F00400009008BD00001C
:102BA000001002400D4810B50B4901600C4941600E
:102BB00000218022C0E90212D201C0E90421816112
:102BC000C1610162FDF7C4FE002803D0BDE81040DA
:102BD000FDF742BB10BD000000540040E0020020A1
:102BE000A08601000D4810B50B4901600C494160F9
:102BF0000021A022C0E902124FF48042C0E9042162
:102C00008161C1610162FDF7A3FE002803D0BDE828
:102C10001040FDF721BB10BD0058004034030020D8
:102C2000A08601000C4810B50A4901604FF4E1315B
:102C30004160002181600C22C160C0E90412816101
:102C4000C161FEF7EBFF002803D0BDE81040FDF79F
:102C500003BB10BD003801408803002008B54FF4C5
:102C60007A7000900223044AA0210448FDF7B4FFC3
:102C7000002800D0012008BD81000020E0020020D3
:102C8000054800210180012101704170FFF7E6FF36
:102C90000A2000F0AFFAF9E781000020FEE7FEE726
:102CA000044C6278217804A000F09CF90A2000F01E
:102CB000A1FAF6E783000020256420202025640D7A
:102CC0000A00000010B5502080F31188BFF34F8F29
:102CD000BFF36F8F00F0F0FE18B104494FF0805041
:102CE0000860002080F3118810BD000004ED00E0B2
:102CF00030B58FB028216846FDF779FA14210AA86B
:102D0000FDF775FA01210804CDE9001000240294B2
:102D100002250491CDE907504FF4E0100990684670
:102D2000FEF79AFB08B172B6FEE70F20CDE90A055F
:102D30004FF48060CDE90C4002210AA80E94FEF702
:102D4000E5F9002801D072B6FEE70FB030BD70473C
:102D50000148FEF7BCBE0000D0030020F0B50268B9
:102D6000194B1A4C1A4D4FF08047984205D0B84283
:102D700003D0A04201D0A84203D122F070064A68D5
:102D80003243984205D0B84203D0A04201D0A842B5
:102D900003D122F44074CA6822434C6922F08002B5
:102DA000224302608A68C2620A688262984201D144
:102DB00009690163012141610169C90703D0016902
:102DC00021F001010161F0BD002C01400004004030
:102DD0000008004001680C3151E8002F22F4907285
:102DE00041E80023002BF5D10168143151E8002F90
:102DF00022F0010241E80023002BF5D1016B0129EB
:102E000009D101680C3151E8002F22F0100241E88D
:102E10000023002BF5D1202180F84210002101630E
:102E20007047000070B5044640684049884204D9A4
:102E300040F675613EA000F0AFF9E06838B1B0F53A
:102E4000005F04D040F6766139A000F0A5F9206952
:102E500050B1B0F5806F07D0B0F5C06F04D040F628
:102E6000776133A000F098F960694FF6F37108427A
:102E700000D120B940F678612DA000F08DF92068CE
:102E80000169E26821F44051114301612169A068A0
:102E90000843616908432168CA6841F20C639A4398
:102EA0000243CA6020684169A26921F4407111435C
:102EB00041612E492068884202D1FEF797FA01E06D
:102EC000FEF784FA00EBC00101EB00126068642198
:102ED0008000B2FBF0F3B3FBF1F36FF0180673431D
:102EE000B2FBF0F5B2FBF0F605EB8305322303EB02
:102EF0000515B5FBF1F5B6FBF1F605F0F00505EBB0
:102F00000615B2FBF0F6B2FBF0F0B0FBF1F06FF09B
:102F10001802504306EB800003EB0010B0FBF1F009
:102F2000216800F00F002844886070BD20AA44008A
:102F30002E2E2F447269766572732F53544D33329F
:102F4000463178785F48414C5F4472697665722FEC
:102F50005372632F73746D3332663178785F6861B2
:102F60006C5F756172742E630000000000380140D0
:102F70002DE9F843984617460D460446089E24E07E
:102F8000701C22D0FDF74CFBA0EB0800B0421AD811
:102F9000CEB12068C168490717D5802D15D0402DC6
:102FA00013D00168C94309070FD4016800254068A0
:102FB00000902046FFF70EFF0820606484F8405020
:102FC0000120BDE8F8830320FBE72068006835EAAC
:102FD000000004D00020B842D2D00020F1E7012048
:102FE000F9E7FEE70FB4054B10B503A9044A0298B0
:102FF00000F028F810BC5DF814FB00009D310008BB
:10300000880000200907090E002804DB00F1E020F9
:1030100080F80014704700F00F0000F1E02080F805
:10302000141D704702E008C8121F08C1002AFAD117
:1030300070477047002001E001C1121F002AFBD138
:10304000704700002DE9FF4F89B09B4604460025DC
:1030500006E025280BD05A460B999047641C6D1C3E
:1030600020780028F5D10DB02846BDE8F08F002764
:10307000B8460122474900E0074314F8013F203BCE
:1030800002FA03F00842F7D120782E2819D114F85B
:10309000010F47F004072A280ED06FF02F02207886
:1030A000A0F1300109290CD808EB880102EB41019D
:1030B00000EB0108641CF2E70A98641C50F8048BCA
:1030C0000A9020780028CED0642808D0692806D03D
:1030D00075281ED05A460B9990476D1C58E00A99E6
:1030E0004FF00A0901C90A91002802DA40422D2155
:1030F00002E0390504D52B218DF82010012103E0D1
:10310000F90704D02021F7E78A4608AE0DE0002138
:10311000FAE70A994FF00A0901C90A91F7E7494607
:10312000FDF770F8303106F8011D0028F7D1ADEB3E
:10313000060000F12009780701D44FF00108C845C6
:1031400002DDA8EB090000E000208046002706E031
:1031500008A85A46C05D0B9990476D1C7F1C5745C7
:10316000F6DB04E030205A460B9990476D1CB8F10D
:103170000001A8F10108F5DC05E016F8010B5A463C
:103180000B9990476D1CB9F10001A9F10109F4DC1C
:10319000641C65E7092801007047000013B54FF66D
:1031A000FF73012269460248FEF7FCFD00981CBD32
:1031B00088030020FDF76CFEFFF79AFDFFF7D4FCB3
:1031C000FFF7F0FCFFF70EFDFFF72CFD022204498C
:1031D0000448FDF717FEFFF7A9FC00F012F8FEE720
:1031E000830000203403002001460020842900D001
:1031F000C81C704710B500B9012000F01FFB00206B
:1032000010BD10B500F040FB002010BD7FB50D468D
:1032100004464169B0F9080081B1A16971B1FFF7B5
:10322000E3FFD4E905128DE80700D4E900102B462E
:10323000226900F016FC039004B070BDFFF7D4FFC4
:1032400003A9CDE90001208A2B4682B2D4E90010FF
:1032500000F0DAFB012801D00020EDE70398EBE74E
:103260002DE9F041184C0F460546E6682068001D20
:1032700000F01CFA38B9206890F82C100120884022
:10328000216981432161681C07D137B12168BDE8FC
:10329000F0410E48091D00F04DBA20683544B54292
:1032A0004560216805D2A06BBDE8F041091D00F022
:1032B00029BA606B091D00F025FAA06A854200D288
:1032C000A562BDE8F081000018000020F404002091
:1032D0002DE9F041054600F039FA2E4CA068401C5B
:1032E000A06020682C4F10B1606940B32DE02560CC
:1032F000A068012829D1002606EB860007EB800094
:1033000000F0F2F9761C072EF6D323488C3000F03B
:10331000EBF92148A03000F0E7F91F48B43000F085
:10332000E3F91D48C83000F0DFF91B48DC3000F03D
:10333000DBF919488C3060631430A06305E0206825
:10334000E96AC06A884200D82560606A401C6062F1
:10335000E96A0120226988401043206101EB810065
:1033600007EB8000291D00F0E5F900F00FFA606915
:1033700000280CD02068E96AC06A884207D2074951
:103380004FF080500860BFF34F8FBFF36F8FBDE8E1
:10339000F0810000180000201804002004ED00E077
:1033A00010B5044690F8510058B101280CD00228FD
:1033B0000FD0502080F31188BFF34F8FBFF36F8F72
:1033C000FEE7206B00F0F6F92046BDE8104000F063
:1033D000F1B910BD10484FF44061420706D0C01D3E
:1033E0000D4920F00700411AC1F540610B4A002346
:1033F0000144C2E900030839183A21F007011160BD
:103400004B600B600B1AC0E9001393604FF0004053
:103410005360506170470000080500206C000020D8
:10342000144E154CA6F1C8074FF08058DFF84C90A9
:1034300012E000BF00F08AF9F068C568281D00F0AE
:1034400035F9A068401EA0606068401E606000F012
:103450009DF92846FFF7A4FF60680028EAD1386884
:103460000128F9D9C9F80080BFF34F8FBFF36F8FE0
:10347000F2E70000E00400201800002004ED00E066
:103480002DE9F0479A46DDE9098481466FF0030390
:10349000206B03EB82021044089E20F00707780798
:1034A00007D0502080F31188BFF34F8FBFF36F8F89
:1034B000FEE7002561B1002023180A5C83F8342060
:1034C0000A5C12B1401C1028F6D384F8435001E086
:1034D00084F83450072E00D30626E662C4E911654D
:1034E000201D00F00CF904F1180000F008F9246127
:1034F000C6F107006462A061E56484F8505052464A
:103500004946384600F0C0F82060B8F1000F01D0FD
:10351000C8F80040BDE8F08730B5114900E0114619
:103520000A688242FBD34B685C18844203D140682E
:1035300018444860084643681C18944209D1084C56
:10354000183C2468A24209D052681A4442600A68B2
:1035500012680260814200D0086030BD0460F9E763
:103560006C0000200648416B096829B1416BC968AD
:10357000C9684968816270474FF0FF31FAE700007F
:103580001800002008484068401C4FF0500080F3AD
:10359000118804D0BFF34F8FBFF36F8FFEE7BFF3E7
:1035A0004F8FBFF36F8FFEE7740000202DE9F041CD
:1035B0000546002700F09EF9324E306808B9FFF743
:1035C00009FF706905424ED1C5B3083568070ED0B2
:1035D00005F00700C0F108000544680707D0502037
:1035E00080F31188BFF34F8FBFF36F8FFEE72DB3CA
:1035F0007068854237D82348183001460C6801E0CE
:1036000020460C466168A94202D221680029F7D100
:1036100031688C4227D007682168016060680837EC
:10362000411B10290FD96019420708D0502080F3A0
:103630001188BFF34F8FBFF36F8FFEE713E0416038
:103640006560FFF769FF61687068401A7060B26872
:10365000904200D2B060706901430020C4E90001CB
:10366000F068401CF06000F08DFA780707D0502019
:1036700080F31188BFF34F8FBFF36F8FFEE738469B
:10368000BDE8F0815400002010B5031F4FF0807496
:103690001C601B1F21F001011960191F024B0B60F8
:1036A000143940380A6010BD85350008D0E9013270
:1036B00001699A60D0E901235A604A68824201D1C7
:1036C00082684A60002202610868401E086008683B
:1036D00070470000034B036003F154000860802032
:1036E000106070478C00002000F108014FF0FF329D
:1036F000C0E90112C1600161002101607047002131
:103700000161704730B50B685A1C02D000F1080205
:1037100002E0026904E02246546825689D42FAD915
:1037200053684B6099608A60516008610168491C68
:10373000016030BD42684A6093688B60936859604D
:10374000916008610168491C01607047502080F356
:103750001188BFF34F8FBFF36F8F0A494868401C31
:10376000486001280CD10848006810F0FF0F07D00E
:10377000502080F31188BFF34F8FBFF36F8FFEE7A8
:10378000704700007400002004ED00E0084948681C
:1037900028B1401E486001D180F311887047502045
:1037A00080F31188BFF34F8FBFF36F8FFEE70000E8
:1037B0007400002070B500282AD0164DA0F108042E
:1037C00060686969084207D1502080F31188BFF30F
:1037D0004F8FBFF36F8FFEE722683AB1502080F31E
:1037E0001188BFF34F8FBFF36F8FFEE78843606090
:1037F00000F080F860686968084468602046FFF758
:103800008BFE2869401C2861BDE8704000F0BAB901
:1038100070BD0000540000204FF0E0200021016145
:10382000816105494FF47A720968B1FBF2F1491ED2
:1038300041610721016170471400002010B50200AA
:1038400014D00F48006B38B1502080F31188BFF3BB
:103850004F8FBFF36F8FFEE700F04CF8002110464A
:10386000FFF7FEFC00F08EF9002807D105494FF064
:1038700080500860BFF34F8FBFF36F8F10BD000003
:103880001800002004ED00E010B586B00024039479
:1038900005AA04A903A80494FFF71CFFDDE90301AE
:1038A0000094CDE9011000230EA11048059A00F004
:1038B000D8F80F490028C86211D0502080F3118831
:1038C000BFF34F8FBFF36F8F4FF0FF30886201203F
:1038D0004861CC6006B0BDE8104000F041B806B0C9
:1038E00010BD000049444C45000000002134000890
:1038F000180000200248016B491C0163704700005A
:10390000180000201448016B11B10121C1617047FA
:103910000021C1610169B1FA81F1C1F11F0101EB1F
:1039200081020E4951F822306BB101EB820101F1A5
:1039300008034A6852684A609A4201D152684A6054
:10394000D16801607047502080F31188BFF34F8F1A
:10395000BFF36F8FFEE7000018000020180400205E
:103960001CB5264908780190FF20087008788DF86A
:1039700000009DF800009DF8002000F0F00090424B
:1039800007D0502080F31188BFF34F8FBFF36F8FA4
:10399000FEE79DF800001A4C00F050002070072050
:1039A000A06005E09DF8002052008DF80020401E28
:1039B0009DF800201206F5D4A060032807D05020FF
:1039C00080F31188BFF34F8FBFF36F8FFEE74FF483
:1039D0004070A060019808700A48016841F47001C5
:1039E0000160016841F070410160FFF715FF0020A0
:1039F0006060FCF797FB00201CBD000000E400E0C5
:103A00007400002020ED00E02DE9FF5F8346DDE932
:103A10000E87994616468A469000FFF7C7FD0500B7
:103A20001CD05420FFF7C2FD040014D000202563F1
:103A300084F85100CDE90240CDE900874B4632467B
:103A400051465846FFF71CFD2046FFF741FC012078
:103A500004B0BDE8F09F2846FFF7ACFE4FF0FF3002
:103A6000F6E7F0B585B0DDE90B640A9DA6B1DCB1DF
:103A7000542700972663022684F85160002604AF7D
:103A8000CDE90246CDE90057FFF7FAFC2046FFF7E3
:103A90001FFC049805B0F0BD502080F31188BFF3DF
:103AA0004F8FBFF36F8FFEE7502080F31188BFF375
:103AB0004F8FBFF36F8FFEE72DE9F0412F4C0026AB
:103AC000206B28B1A069401CA0613046BDE8F081A0
:103AD000E5686D1CE56013D1606B006838B150205B
:103AE00080F31188BFF34F8FBFF36F8FFEE7606BDA
:103AF000A16B6163A063206A401C2062FFF732FD66
:103B0000A06ADFF87C80854209D3606B0068A0B1B1
:103B1000606BC068C7687868854211D2A06220686F
:103B2000C06A00EB800158F82100012800D9012665
:103B3000E0690028C9D00126C7E74FF0FF30EDE764
:103B4000381DFFF7B3FDB86A18B107F11800FFF789
:103B5000ADFDF96A0120226988401043206101EB24
:103B6000810108EB8100391DFFF7E4FDF86A216847
:103B7000C96A8842C9D30126C7E70000180000209F
:103B8000180400202DE9F0472C4D00242746286B0F
:103B900038B1FFF7DBFD286B401E2863286B40B16E
:103BA00046E0502080F31188BFF34F8FBFF36F8F33
:103BB000FEE7A968224E0120D1B3A6F1B4098046E0
:103BC0003068E8B1F068C46804F11800FFF76EFDD2
:103BD000201DFFF76BFDE06A2A6908FA00F1114326
:103BE000296100EB800109EB8100211DFFF7A2FD97
:103BF000E06A2968C96A8842E2D3C5F81C80DFE719
:103C00000CB1FFF7AFFCAC6944B14646FFF754FF77
:103C100000B1EE61641EF9D10020A861E86938B1F5
:103C20000849012738070860BFF34F8FBFF36F8F34
:103C3000FFF7ACFD3846BDE8F08700001800002013
:103C4000CC04002004ED00E0B83C0008812C000802
:103C500000000000000000008000000000000000E4
:103C600000000000AC3C0008A12C0008000000008F
:103C700000000000800000000000000000000000C4
:103C8000010202030405060708090A0B0C0D0E0FBA
:103C900010100000000000000000010203040607ED
:103CA000080900000000010203040000536C617663
:103CB000655461736B0000004D61737465725461EB
:103CC000736B0000E43C0008000000208C00000042
:103CD00024300008703D00088C0000207C14000097
:103CE0003430000800000000000000000100000067
:103CF000100000000000000000127A000000000028
:103D000000000000000000000000000000000000B3
:103D100000000000000000000000000000000000A3
:103D20000000000000000000000000000000000093
:103D30000000000000000000000000000000000083
:103D40000000000000000000000000000000000073
:103D5000000000000000000000000000AAAAAAAABB
:103D60000000000000000000000000000000000053
:04000005080000ED02
:00000001FF
