:020000040800F2
:1000000038150020990100089F2800086118000891
:100010009D28000855020008932C000800000000ED
:1000200000000000000000000000000001010008C6
:10003000570200080000000045010008092A0008D6
:10004000B3010008B3010008B3010008B3010008C0
:10005000B3010008B3010008B3010008B3010008B0
:10006000B3010008B3010008B3010008B3010008A0
:10007000B3010008B3010008B3010008B301000890
:10008000B3010008B3010008B3010008B301000880
:10009000B3010008B3010008B3010008B301000870
:1000A000B3010008952A0008B3010008B301000855
:1000B000B3010008B3010008B3010008711800087B
:1000C00065180008891800087D180008B3010008A9
:1000D000B3010008B3010008B3010008B301000830
:1000E000B3010008B3010008B3010008DFF80CD029
:1000F00000F09EF8004800475130000838150020F5
:10010000224B19680868B0E8F00F80F30988BFF344
:100110006F8F4FF0000080F311884EF00D0E704786
:100120000000000006480068006880F3088862B696
:1001300061B6BFF34F8FBFF36F8F00DF00BF00BF0B
:1001400008ED00E0EFF30980BFF36F8F0F4B1A68E3
:1001500020E9F00F106008B54FF0500080F31188CF
:10016000BFF34F8FBFF36F8F03F014FB4FF000000E
:1001700080F31188BDE8084019680868B0E8F00FFE
:1001800080F30988BFF36F8F704700BF180000200D
:10019000EFF3058070470000064880470648004797
:1001A000FEE7FEE7FEE7FEE7FEE7FEE7FEE7FEE727
:1001B000FEE7FEE7932A0008ED00000840EA01038D
:1001C0009B0703D009E008C9121F08C0042AFAD20D
:1001D00003E011F8013B00F8013B521EF9D27047D1
:1001E000D2B201E000F8012B491EFBD27047002279
:1001F000F6E710B513460A4604461946FFF7F0FF26
:10020000204610BD30B50B460146002020220124B7
:1002100009E021FA02F59D4205D303FA02F5491BD4
:1002200004FA02F52844151EA2F10102F1DC30BDEA
:10023000064C074D06E0E06840F0010394E8070033
:1002400098471034AC42F6D3FFF754FF003C000847
:10025000203C0008FEE7704772B6FEE710B590F844
:1002600021100024022903D00421816301243DE0F0
:1002700001680A6822F00E020A6001680A6822F02A
:1002800001020A601A4A0168914201D1012121E06C
:10029000174A1432914201D110211BE0144A28322E
:1002A000914201D1891515E0114A3C32914201D1A8
:1002B00089140FE00E4A5032914202D14FF480313E
:1002C00008E00B4A6432914202D14FF4801101E000
:1002D0004FF08071064A083A5160012180F82110E0
:1002E000002180F82010416B01B18847204610BDE5
:1002F0000800024090F82100704700002DE9F84FF7
:10030000DFF8B8910024A9F1040B23460F2709F167
:10031000040AABF1040EC9E00125A5402A40AA4217
:100320007DD1674ED1F804C0ACEB0608B44532D09D
:1003300014DCBCF1030F3AD009DCBCF1000F2AD069
:10034000BCF1010F1CD0BCF1020F31D11DE0BCF19A
:10035000110F17D0BCF1120F2AD119E0B8F5881F80
:1003600019D006DCB8F5803F15D0B8F5801F1FD135
:1003700011E0B8F5001F0ED0B8F5041F18D10AE03F
:10038000CB6815E0CB681B1D12E0CB6808330FE08B
:10039000CB680C330CE08B682BB1012B4FF00803BA
:1003A00003D0456104E0042302E0056100E000237E
:1003B000FF2A01D8064601E000F104064FEA840551
:1003C00001D9A5F12005D6F8008007FA05FC28EA36
:1003D0000C0803FA05F548EA0508C6F800804D68E0
:1003E000ED0062D5374DAE6946F00106AE61AD69EC
:1003F00024F0030605F001050095334D06EB050CCE
:10040000DCF80850A607360F07FA06F825EA0805B3
:10041000DFF8B880404503D14FF0000817E044E012
:10042000DFF8AC80404502D14FF001080FE0DFF863
:10043000A480404502D14FF0020808E0DFF8988020
:10044000404502D14FF0030801E04FF0040808FADC
:1004500006F848EA0508CCF808804D68D9F800602D
:10046000ED024D4601D5164300E096432E604D68DF
:10047000DAF80060AD02554601D5164300E0964318
:100480002E604D68DBF80060AD035D4601D5164374
:1004900000E096432E604D68DEF80060ED0375467F
:1004A00001D5164300E096432E60641C0D682A4671
:1004B000E5407FF431AFBDE8F88F0000080401404B
:1004C000000011100010024000000140000801402F
:1004D000000C0140001001400014014001488068F8
:1004E000704700000800002070470000084B0268B9
:1004F0009A420CD101294FF0080303D00622054986
:1005000000F065BC03490722C91F00F026BC7047F4
:10051000005800402C11002090F83D10282901D0EF
:100520000220704790F83D1090F83E2001F0030142
:100530000A430263202180F83D10002180F83E101C
:1005400050F8201B0A6822F480620A6050F8200CE0
:10055000416821F440714160002070472DE9F0416D
:10056000016804464A694E6890F83E000025D7436A
:10057000FA050BD4F243D20508D46FF4807201253A
:100580004A6121680A6842F400420A60B90508D449
:10059000F143C90505D422686FF4007145F00205E6
:1005A0005161790525D4F143C90522D4638D94F8AE
:1005B0003D10226B202808D13BB9212910D02929D0
:1005C0000ED0282901D1212A0AD022686FF4806137
:1005D000516145F00405102806D0402804D008E0F9
:1005E000204601F0BDFD04E02068016841F400717F
:1005F0000160380508D4F043C00505D421686FF4C4
:10060000006045F008054861002D07D0206C2843A4
:1006100020642046BDE8F04101F0A2B9BDE8F081B8
:100620002DE9F047026800215368C66A90F83E4001
:1006300090F83D50102C12D0402C10D0046C002C9F
:100640007DD05469E443A6077AD4DE43B60577D457
:10065000036C03B19169BDE8F04701F05DBD976996
:1006600051694FF42A0CC9435FEAC1784FF02A4917
:1006700004D066452AD04E4528D010E0DE43B605AA
:100680000DD4C16A614501D1012103E0C16A494528
:1006900001D10821C162BDE8F04701F0A3BC0E07FB
:1006A00016D4DE43B60513D4416CC9B21161416B57
:1006B00009B1896A29B9816B002907D0896A0029A3
:1006C00004D00068416841F400614160BDE8F087F2
:1006D0008E0706D4DE43B60503D4BDE8F04701F02B
:1006E000D5BBFE43526876074FEA02521DD4002A5A
:1006F000ECDB0A0608D4DA43520505D4490705D5D0
:10070000BDE8F04701F066BB4907DFD4D94389054E
:10071000DCD4212D05D0402CD8D1BDE8F04701F024
:10072000A7BCBDE8F04701F013BB002ACEDB4A06A8
:100730000BD4DA43520508D4490708D501E00DE08F
:100740000EE0BDE8F04701F03BBA4907BED4D943FB
:100750008905BBD4BDE8F04701F0C5B9916970E7E0
:10076000E10606D4D943890503D4BDE8F04701F07A
:100770003FBD2821212D27D0292D25D0650655D410
:10078000DD436D0552D4640752D590F83D30448D59
:10079000002C9BD01269446A2270426A521C426249
:1007A000428D521E4285428D002A8FD12A2B8DD137
:1007B0000268536823F4806353602222026380F846
:1007C0003D1000F0BDFA81E7250623D4DD436D0519
:1007D00020D4640720D590F83D30448D002CF2D011
:1007E000446A24781461426A521C4262428D521E4D
:1007F0004285428D002AE6D1292BE4D10268536854
:1008000023F4806353602122026380F83D1000F0DE
:10081000A3FA5BE76107D6D4D9438905D3D4418DC8
:100820000029D0D0416A097811610AE06107CAD471
:10083000D9438905C7D4418D0029C4D01169426AC2
:100840001170416A491C4162418D491E41853DE755
:1008500090F83D10202901D002207047282180F80F
:100860003D1001680A68D20703D10A6842F001020C
:100870000A6001680A6842F480620A6000684168A0
:1008800041F440714160002070470000084B02684D
:1008900001219A4205D1006C400701D405484170FE
:1008A000704705488242FBD1044801707047000040
:1008B00000580040800000200054004082000020CA
:1008C00070B5040025D094F83D00002520B984F8C7
:1008D0003C50204600F0CAF9242084F83D002068EE
:1008E000016821F0010101602068016841F40041C4
:1008F00001602068016821F40041016000F01CFCE7
:100900004D4A6168914201D84C4900E04C49884207
:1009100001D2012070BD4B492368B0FBF1F15E6844
:1009200026F03F060E435E606368934206D94FF49B
:10093000967359434FF47A73B1FBF3F12368491C62
:100940001E6A26F03F06314319626168914210D851
:100950004900401EB0FBF1F2521CC2F30B02042A04
:1009600001D2042022E0B0FBF1F0401CC0F30B00E8
:100970001CE0A268F2B301EBC10303EB0116431EB6
:10098000B3FBF6F35B1C43F480431B0549D092B3E1
:1009900001EBC10202EB0111401EB0FBF1F0401C63
:1009A000C0F30B0040F4804040F400402168CA6965
:1009B0004CF6FF739A431043C861D4E90710014312
:1009C0002068026822F0C00211430160D4E90301EB
:1009D00001432068826848F2FF339A4311438160E3
:1009E000D4E9050108432168CA6822F0FF021043D8
:1009F000C86001E00EE016E02068016841F00101E6
:100A000001602564202084F83D00256384F83E5071
:100A1000002070BD01EB4106431EB3FBF6F35B1CE7
:100A2000B3E70120C2E701EB4101401EB0FBF1F04A
:100A3000401CC0F30B00B7E7A086010080841E00B5
:100A400000093D0040420F00034A0168914201D174
:100A5000FFF7FEBE704700000058004000680349E1
:100A6000884202D1024901200870704700540040BA
:100A7000820000207047000078B50024009490F8B0
:100A80003D50202D53D12B4D46F2A8162D68B5FBB5
:100A9000F6F505EBC50606EB051500956D1E0095F0
:100AA00006D00568AD69ED43AD070BD4009DF5E7B1
:100AB00040F8304F202141738473016941F02001D7
:100AC000016134E090F83C50012D30D0012580F8D0
:100AD0003C5005682E68F60703D12E6846F00106E3
:100AE0002E6005682E6826F400662E60222580F8A8
:100AF0003D50102580F83E50046442624385428D8B
:100B000002850D4AC262416480F83C4001684A682F
:100B100042F4E0624A6001680A6842F480620A6056
:100B20000068016841F480710160002078BD0220F6
:100B300078BD0000140000200000FFFF2DE9F84FF1
:100B40001F4690468A460446DDF82890FFF7C6FC0B
:100B5000054694F83D0020287FD119230122404901
:100B60002046009501F01EFC002876D194F83C0048
:100B7000012872D0012084F83C0020680168C90770
:100B800003D1016841F0010101602068016821F48E
:100B900000610160212084F83D00102084F83E00AF
:100BA00000262664C4F824806785608D20852D4842
:100BB000E0622B464A465146204601F07BF890B948
:100BC000206841698069009036E02A4649462046FF
:100BD00001F08EFC50B1206C042804D1206801681B
:100BE00041F4007101600120BDE8F88F606A21685E
:100BF00000780861606A401C6062618D491E6185F1
:100C0000218D491E89B2218522685369DB435B0728
:100C10000BD451B100781061606A401C6062608D35
:100C2000401E6085208D401E20852A46494620466C
:100C300001F08CFB0028CED1208D0028C5D154F8BE
:100C40003D0B016841F400710160202004F81E0989
:100C5000E67766770020C7E7FFE70220C4E70000D9
:100C6000020010000000FFFF7047704730B585B0EC
:100C7000002100910191029103912D4D03682D4CAB
:100C8000122103222C48AB4225D1A36943F008036B
:100C9000A361A369039203F008030493C023CDE981
:100CA00000316946FFF72AFBE06940F40010E0617B
:100CB000E069002200F40010049005211F2000F0DC
:100CC00053F91F2000F042F900220521202000F0F6
:100CD0004BF9202028E0194DAB4227D1A36943F0FE
:100CE0000803A361A369039203F0080304934FF47C
:100CF0004063CDE900316946FFF700FBE06940F44D
:100D00008000E061E069002200F480000490052189
:100D1000212000F029F9212000F018F900220521F6
:100D2000222000F021F9222000F010F905B030BD9A
:100D30000054004000100240000C014000580040E8
:100D400000680349884202D10249012008707047B7
:100D50000058004080000020704738B590F83D50A2
:100D60002824AC4331D161B15AB190F83C40012CF8
:100D70002BD0012480F83C4004682568ED0702D0A0
:100D800005E0012038BD256845F0010525600468AF
:100D9000256825F4006525602A2480F83D4020243C
:100DA00080F83E400024046441624285418D018503
:100DB000C36201684A698A69009280F83C404868C9
:100DC00040F4E0604860204638BD022038BD38B5A8
:100DD00090F83D502824AC4331D161B15AB190F81C
:100DE0003C40012C2BD0012480F83C40046825684D
:100DF000ED0702D005E0012038BD256845F001056A
:100E000025600468256825F400652560292480F89C
:100E10003D40202480F83E40002404644162428525
:100E2000418D0185C36201684A698A69009280F830
:100E30003C40486840F4E0604860204638BD0220ED
:100E400038BD000002488168027811448160704713
:100E500008000020074810B5016841F0100101604A
:100E6000032000F0A1F80F2000F006F800F04AF887
:100E7000002010BD0020024030B505461C4887B058
:100E8000816941F400618161806906A900F4006014
:100E9000009001A800F030F900F05EF91549164AFB
:100EA000B0FBF1F11548491E0260416040F2E732A3
:100EB0000021C0E903218160816100F015FB04007D
:100EC00012D10E4800F03EFB04000DD1192000F0B5
:100ED0003DF8102D07D200222946192000F044F8D1
:100EE0000748056000E0012407B0204630BD00003F
:100EF0000010024040420F00002C0140E00300209F
:100F00000C0000200F4808B5816941F001018161A2
:100F1000816901F001010091C16941F08051C16115
:100F2000C069002200F0805000900F21901E00F058
:100F30001BF80548416821F0E06141F00071416013
:100F400008BD00000010024000000140002809DB3D
:100F500000F01F02012191404009800000F1E020D3
:100F6000C0F8001170470000F0B40E4B1B680C462F
:100F7000C3F30223C3F10705042D00D90425191D6D
:100F8000072901D2002300E0DB1E012606FA05F145
:100F9000491E214099409E40761E16403143F0BCC8
:100FA00001F088BE0CED00E0064900F00702086879
:100FB0004FF6FF03184040EA0220034A104308603E
:100FC000704700000CED00E00000FA052DE9F04745
:100FD0000F46050061D0434E306800F00700B8426C
:100FE00009D2306820F0070038433060306800F0E4
:100FF0000700B84251D128683B4C810712D5400701
:1010000003D5606840F4E06060602878000703D58D
:10101000606840F4605060606068A96820F0F0008B
:10102000084360602878C00728D06868012810D07D
:101030002168022810D0890700292EDA616821F082
:10104000030101436160FFF749FA804641F28839A4
:101050000DE021688903EFE78901EDE7FFF73EFA2C
:10106000A0EB0801494502D90320BDE8F08760687C
:10107000696800F00C00B0EB810FEFD1306800F030
:101080000700B8420BD9306820F0070038433060C1
:10109000306800F00700B84201D00120E5E7287869
:1010A000400705D56068E96820F4E06008436060A7
:1010B0002878000706D56068296920F4605040EA66
:1010C000C100606000F058F86168084AC1F303117C
:1010D000515CC8400649086006480068FFF7CCFE2E
:1010E0000020C2E700200240001002402A3B000816
:1010F000140000200C0000200F2202600C4A5368EC
:1011000003F003034360536803F0F0038360536804
:1011100003F4E063C36052684FF4E06303EAD20271
:1011200002610448006800F0070008607047000092
:101130000010024000200240044805490068496848
:10114000044AC1F30221515CC840704714000020DA
:10115000001002403A3B000804480549006849680D
:10116000044AC1F3C221515CC840704714000020FA
:10117000001002403A3B00080E4A51680E4801F048
:101180000C03042B11D0082B0FD10C48C1F383435F
:10119000C903C05C0AD55168084AC1F34041921E98
:1011A000515C054A5043B0FBF1F070470449484395
:1011B000704700000010024000127A001A3B00083D
:1011C00000093D002DE9F84F040070D02078C04D93
:1011D000C00749D06868C0F38100012807D068685B
:1011E000C0F38100022809D16868C00306D52868C9
:1011F000800339D560680028E7D035E06068B0F535
:10120000803F0BD010B1B0F5A02F11D0286820F48A
:1012100080302860286820F4802002E0286840F4AC
:1012200080302860606890B1FFF758F906460AE000
:10123000286840F480202860F0E700BFFFF74EF9EF
:10124000801B642873D828688003F7D50CE0FFF76B
:1012500045F9064605E000BFFFF740F9801B64280A
:10126000F0D828688003F7D420789A4E80074FF092
:1012700001094FF0000839D5686810F00C0F07D04D
:101280006868C0F38100022809D16868C00306D4E9
:101290002868800714D52069012808D110E020694A
:1012A000B0B1C6F80090FFF719F9074605E00AE16A
:1012B000FFF714F9C01B0228C4D828688007F7D5A7
:1012C0002868616920F0F80040EAC10028600DE05C
:1012D000C6F80080FFF702F9074604E0FFF7FEF8C2
:1012E000C01B022823D828688007F7D4207800077D
:1012F0002CD57948A169D9B1C0F80090FFF7EEF874
:10130000074604E0FFF7EAF8C01B02280FD8686A16
:101310008007F7D571484FF4FA510068B0FBF1F03F
:10132000009000BF0098411E0091FAD20EE080E0CC
:10133000C0F80080FFF7D2F8074604E0FFF7CEF8C8
:10134000C01B022875D8686A8007F7D42078400748
:1013500060D5E8690027C00008D4E86940F08050F3
:10136000E861E869012700F0805000905C4801685E
:10137000C90513D40168834641F480710160FFF709
:10138000ADF8824606E000BFFFF7A8F8A0EB0A0020
:1013900064284ED8DBF80000C005F5D5E0680128C8
:1013A0000AD008B1052813D0286A20F0010028626D
:1013B000286A20F0040002E0286A40F00100286258
:1013C000E06841F2883B98B1FFF788F882460BE06D
:1013D000286A40F004002862EEE700BFFFF77EF8BD
:1013E000A0EB0A0159455AD8286A8007F6D50CE0C7
:1013F000FFF774F8824605E0FFF770F8A0EB0A01EA
:1014000059454CD8286A8007F6D41FB1E86920F006
:101410008050E861E06988B36968C1F381010229FD
:1014200044D00228C6F8608004D0FFF757F804467D
:1014300038E034E0FFF752F8074604E0FFF74EF8D3
:10144000C01B02282BD828688001F7D4206AB0F589
:10145000803F05D16868A16820F4003008436860C7
:10146000D4E908010843696821F4741108436860ED
:10147000C6F86090FFF732F8044606E025E000BFAA
:10148000FFF72CF8001B022809D828688001F7D53F
:101490001BE000BFFFF722F8001B022802D903203F
:1014A000BDE8F88F28688001F4D40EE00128F7D059
:1014B0006868226A00F48031914204D1616A00F4C4
:1014C0007010884201D00120EAE70020E8E7000020
:1014D00000100240000042428004424214000020FA
:1014E000007000407047704710B5040003D094F8B6
:1014F0003D0010B107E0012010BD002084F83C0041
:10150000204600F01EF8022084F83D00211D2068CE
:1015100001F0C6FA012084F8460084F83E0084F801
:101520003F0084F8400084F8410084F8420084F8C9
:10153000430084F8440084F8450084F83D0000200E
:1015400010BD704790F83D10012901D0012070476F
:10155000022180F83D100168CA6842F00102CA60A9
:1015600000680B49884208D0B0F1804F05D0094986
:10157000884202D00849884204D1816801F00701FD
:10158000062903D0016841F0010101600020704785
:10159000002C0140000400400008004070472DE985
:1015A000F04104460068C66805694FF00007A907C6
:1015B00013D5B10711D5F91E0161012020772068EC
:1015C00080698007204602D0FFF7E8FF04E000F0C2
:1015D0007EF8204600F07CF82777680716D570075C
:1015E00014D521686FF0040008610220207720687C
:1015F000806910F4407F204602D0FFF7CFFF04E05F
:1016000000F065F8204600F063F82777280715D525
:10161000300713D521686FF0080008610420207797
:101620002068C0698007204602D0FFF7B7FF04E0BA
:1016300000F04DF8204600F04BF82777E80616D565
:10164000F00614D521686FF010000861082020779B
:101650002068C06910F4407F204602D0FFF79EFF4B
:1016600004E000F034F8204600F032F82777E8076D
:1016700008D0F00706D021686FF00100086120460D
:1016800000F028F8280608D5300606D521686FF046
:10169000800008612046FFF725FF680608D5700620
:1016A00006D521686FF040000861204600F01CF864
:1016B000A8060AD5B00608D521686FF02000086199
:1016C0002046BDE8F041FFF70EBFBDE8F08170474E
:1016D0007047000000680349884201D1FFF7B2BBA0
:1016E00070470000002C0140704770B5040004D022
:1016F00094F84100002510B106E0012070BD84F887
:101700004050204600F024F8242084F8410020684E
:10171000C16821F40051C160204601F025FA20681B
:10172000016921F4904101612068416921F02A0199
:1017300041612068C16841F40051C16065642020A6
:1017400084F8410084F842006563002070BD000009
:1017500030B585B00024009401940294039400688D
:101760001449884224D11448816941F4804181613F
:10177000816901F480410491816941F00401816132
:1017800080690E4D00F0040004904FF4007000904A
:10179000022001900320039069462846FEF7AEFD23
:1017A0002815CDE90004694628460294FEF7A6FDF7
:1017B00005B030BD00380140001002400008014073
:1017C0002DE9F843044690F84100984616460D4628
:1017D000202802D00220BDE8F88385B17EB1002028
:1017E0006064212084F84100FEF778FEA6848146DB
:1017F000E684A0682027B0F5805F02D003E00120D6
:10180000E9E7206910B12E4600250EE000260CE025
:101810008021204601F004FAA8B9C6B116F8010BE0
:1018200021684860E08C401EE084E08C4B464FF01D
:101830000002CDF800800028EAD14FF04001204698
:1018400001F0EEF940B184F841700320C3E735F8A8
:10185000020BC0F30800E3E784F841700020BAE708
:10186000FEE700000148FEF779BE0000F00200200C
:101870000148FEF7D5BE0000F00200200148FEF747
:101880006DBE0000440300200148FEF7C9BE000001
:101890004403002038B5406A002190F83D202B4BCE
:1018A00046F2A8141B68B3FBF4F3C3EBC30303EBCA
:1018B000830300933BB15B1E009303681B689B0589
:1018C00005D5009BF6E7036C43F020030364436BEC
:1018D00003B19962836B03B1996203681C6824F4B5
:1018E00080641C604185436B03B15963836B03B112
:1018F000596303681C6824F001041C6090F83D40A3
:101900002023602C0BD0282434EA02020FD080F868
:101910003D3080F83E1000BFFEF7B8FF38BD80F8BC
:101920003D3080F83E100164FEF7DEFD38BD0268F0
:10193000136843F0010313600268136843F4806383
:101940001360016380F83D40E6E7000014000020CA
:1019500000684169C943090601D40021016170474B
:1019600070B5044690F83D0094F83E10102901D05F
:10197000402906D1222804D121680A6822F4006295
:101980000A60282131EA00024FF000054FF02006DE
:1019900026D021684968090505D4602803D084F859
:1019A0003D6084F83E50256320684168090537D5BD
:1019B000416821F400614160606B90F821203C494E
:1019C000012A11D04163606BFEF748FC38B32068F0
:1019D000016821F00101016084F83D60606B1CE04A
:1019E000256384F83D10DFE7A06B4163A06BFEF731
:1019F00035FCA0B120684169C943490605D4006996
:101A0000616A0870606A401C60622068016821F0A9
:101A10000101016084F83D60A06B416B884710E0D4
:101A200094F83D10602910D04169C943490605D496
:101A30000069616A0870606A401C60622046FEF7B7
:101A400025FF206CC1071CD115E084F83D6025649A
:101A50004169C943490605D40069616A0870606A32
:101A6000401C60622068016821F00101016020468D
:101A7000FEF73AFDE5E7810703D4410701D40007EB
:101A800004D52068416821F4E061416094F83D008C
:101A9000216C49070BD5282809D10648E062256347
:101AA00084F83D6084F83E502046FEF7CDFF70BDBF
:101AB000951800080000FFFF01684A69D2435205EB
:101AC0000FD46FF480624A61002140F8301F202259
:101AD00042738173026942F00402026101730120C2
:101AE00070470020704710B5C26A438D0168042B0F
:101AF00006D0438D032B08D0438D022B1DD012E05E
:101B00004A6822F480624A600CE04B6823F48063E8
:101B10004B60042A06D0022A04D001680A6822F425
:101B200080620A6001680969426A1170416A491C51
:101B30004162418D491E418510BD012A34D0102AD1
:101B400032D0042A34D0022A32D00B6843F4007316
:101B50000B6001680969436A1970416A491C416256
:101B6000438D5B1E438503681B690B70416A491CEA
:101B70004162418D491E418501684B6823F44073E1
:101B80004B60202180F83D1090F83E300021402B22
:101B900080F83E1010D0082A02D0202A00D012214E
:101BA0000163FEF75BFF10BD0B6823F48063CFE792
:101BB0000B6843F48063CBE70163FFF755F810BD72
:101BC00038B590F83D10222910D1C36A418D032900
:101BD0000DD901680969426A1170416A491C416264
:101BE000418D491E4185418D032906D038BDC26A09
:101BF000022A02D0012906D029B10068416821F4E7
:101C00008061416038BD2A4A46F2A814002112685A
:101C1000B2FBF4F202EB8202009202682024009DE3
:101C20006D1E009526D01568AD05F8D4156825F40D
:101C3000806515600268556825F4E06555600268A6
:101C40001269456A2A70426A521C4262428D521ED3
:101C5000428580F83D4090F83E2080F83E10402AB2
:101C600021D0082B02D0202B00D012210163FEF7D7
:101C7000F5FE38BD036C43F020030364536823F47E
:101C8000E063536002681269436A1A70426A521C28
:101C90004262428D521E428580F83D4080F83E10DF
:101CA000FEF7F4FD38BD0163FEF7DEFF38BD00002E
:101CB00014000020F8B50446C06A1E460D461746BB
:101CC000082807D0012805D010F5803F02D0206BEE
:101CD000122804D12068016841F480710160134624
:101CE00000224FF001112046009600F05BFB40B14E
:101CF00020680068C00502D54FF4007020640320FE
:101D0000F8BD2069B0F5804F0ED00620216800EAAA
:101D1000D51040F0F000086133463A460B492046A2
:101D200000F088FB78B902E005F0FE0000E0E8B2C0
:101D300021680861054933463A46891F204600F06C
:101D400079FB0028DCD00120F8BD0000080001006C
:101D500010B5C26A90F83D1021290BD1418D51B1C7
:101D6000416A026809781161416A491C4162418DEA
:101D7000491E418510BD20230021082A13D0202AA6
:101D800011D012F5803F0ED00268546824F4E0644C
:101D900054601122026380F83E1080F83D3000BF8D
:101DA000FEF768FE10BD0268546824F4E0645460D5
:101DB0000268146844F400741460016380F83D30D4
:101DC00090F83E2080F83E10402AE9D1FEF74DFF02
:101DD00010BD000010B590F83D1090F83E30C26A7A
:101DE000048DB4B1212903D0402B11D122290FD168
:101DF000418DE1B390F83E10402942D0416A02681B
:101E000009781161416A491C4162418D491E418531
:101E100010BD2129E8D120230021082A13D0202A2F
:101E200011D012F5803F0ED00268546824F4E064AB
:101E300054601122026380F83E1080F83D3000BFEC
:101E4000FEF718FE10BD0268546824F4E064546084
:101E50000268146844F400741460016380F83D3033
:101E600090F83E2080F83E10402AE9D100E002E0E0
:101E7000FEF7FBFE10BD0068416821F480614160FF
:101E800010BDBDE8104000F0F3B8000078B590F840
:101E90003E50C26A046B90F83D6000230168222E18
:101EA00073D1066D0EB9402D6FD0056D1DB9056952
:101EB000B5F5404F1BD0458D95B3468D484D012E4D
:101EC00020D0448D022C4DD00C6844F480640C600A
:101ED00001684C68240579D5AA4273D0012A71D0D3
:101EE000082A6FD0102A6DD0202A6BD06EE04A6984
:101EF0008A6900920A6842F480720A60016D491C86
:101F0000016578BDAA4214D10A6822F480620A6091
:101F100001684A68120504D50A6822F4806217E055
:101F2000FFE74A698A6900920A6842F400720A600F
:101F300050E0082A10D0202A0ED0122C0AD0042AF1
:101F400003D0022A01D0102AE6D10A6842F4806246
:101F50000A603BE0012ADFD00A6822F480620A604E
:101F60000168DEE7042A11D0022A0FD0102A0DD012
:101F70000C6844F400640C6001684C698C6900943E
:101F80000C6824F480640C6008E025E00C6844F4DC
:101F900080640C6001684C698969009101684C6833
:101FA000240517D5AA4207D0012A05D0082A03D054
:101FB000102A01D0202A0DD14A6842F480524A608A
:101FC00008E0FFE74A6842F480524A6001684A69C3
:101FD00089690091036578BD48698869009078BD7A
:101FE0000000FFFF90F83E10402910D00169B1F5C4
:101FF000804F19D0016DA9B3016D012910D1416C39
:102000005FF0F10201F4407142EAD11106E0016D86
:102010000029416C05D0C9B241F00101006801619D
:10202000704701F0FE01F9E790F83D102129416C5D
:1020300009D0C9B241F0010102681161416B29B1B7
:10204000896A49B902E001F0FE01F5E7816B0029D8
:10205000E6D0896A0029E3D00068416841F4006154
:1020600041607047FFE7416CF02201F44071CBE71B
:1020700010B590F83D10026D4AB1026D012A14D0DE
:10208000026D022A16D0BDE81040FFF761BCC16C9A
:102090000129816C02D0C1F3072108E00268C9B2AE
:1020A0001161016D891C016510BD816CC9B20268A6
:1020B000116123E022291CD0428D0AB1212920D0B0
:1020C000428D002AF0D12129EED101684A6822F41C
:1020D000E0624A6001680A6842F400720A60002106
:1020E0000163202280F83D2080F83E10FEF7BDFD00
:1020F00010BD01680A6842F480720A60016D491CD3
:10210000D1E7416A026809781161416A491C41625C
:10211000418D491E418510BD38B50C4690F83D20D3
:1021200000212825954302680B4605D05169916925
:10213000009180F83C3038BD556825F480655560C5
:10214000E243540700D50121120601D5828900E03F
:10215000028B80F83C3092B2FEF7C8F938BD00001F
:102160002DE9F04190F83D300446C26A0021202656
:102170001E4F00686FF48065082A01D0202A01D123
:10218000282B04D0212B17D04561BDE8F081E762F0
:10219000426822F4E062426020684561206802687B
:1021A00022F480620260216384F83D6084F83E106E
:1021B0002046FEF749FCE8E7E7622122226384F823
:1021C0003D6084F83E10416821F4E0614160206880
:1021D00045612068016821F4806101602046FFF7B5
:1021E000B7FB2046FEF7B8FDCFE700000000FFFF79
:1021F000F8B590F83D6004460068416821F4E0615C
:1022000041602068002541690091016841F00101A9
:1022100001602068016821F48061016020684168E4
:10222000090520D5474F222E48D02A2E46D0616B73
:10223000096849686185618D19B1216C41F004011B
:102240002164416821F400614160606BFEF752F83F
:10225000012808D0606B4763606BFDF7FFFF10B18A
:10226000606B416B8847608D08B320684169C94342
:10227000490708D40069616A0870606A401C60629E
:10228000608D401E608520684169C943490608D4B5
:102290000069616A0870606A401C6062608D401E5F
:1022A0006085608D18B1206C40F004002064206CC3
:1022B00000B32046BDE8F840FFF752BBA16B0968A8
:1022C00049686185618D19B1216C41F00401216477
:1022D000416821F400614160A06BFEF70BF8012812
:1022E000C1D0A06B4763A06BFDF7B8FF0028BAD040
:1022F000A06BB6E72A2E06D12563282084F83D007E
:102300002046FEF71DFD94F83D10202028290DD011
:10231000216B222901D0222E07D1256384F83D00AC
:1023200084F83E502046FEF70BFDF8BD0649E162F9
:10233000256384F83D0084F83E502046FEF784FB78
:10234000F8BD0000951800080000FFFF70B51646A4
:102350000D4604461EE02046FFF7AEFB08B1012003
:1023600070BD681C16D0FEF7B9F8801BA84200D8D3
:1023700085B920684069C04340070BD5002044F868
:10238000300F20216173A073216941F02001216188
:102390002073E4E720684069C0434007DBD4002095
:1023A00070BD00002DE9F047984617460D460446DB
:1023B000C1F30746DDF820902AE000BFB8F1FF3FE7
:1023C00026D0FEF78BF8A0EB0901414502D8B8F101
:1023D000000F1DD12068012E16D0806925EA00006B
:1023E0000004000C12D00020B84211D1002044F8A3
:1023F000300F20216173A073216941F02001216118
:1024000020730120BDE8F0874069E7E70120EBE792
:102410002068012E0AD0806925EA00000004000C23
:1024200006D00020B842C9D00020EBE74069F3E7AE
:102430000120F7E72DE9F047984616460D46044679
:102440004FF000094FF0200AC1F3074723E020684E
:102450004069C043400515D42068016841F400710B
:10246000016021686FF480604861C4F8309084F89E
:102470003DA084F83E90216C41F00401216484F871
:102480003C9021E0701C06D0FEF728F8A0EB080075
:10249000B04203D816B1012F1FD021E02068012FD0
:1024A00015D0806925EA00000004000C18D000BF98
:1024B00044F8309F84F80DA084F80E90216941F013
:1024C0002001216184F80C900120BDE8F08740696B
:1024D00025EA00000004000CEAD12068406901E010
:1024E0002068806925EA00000004000CAFD1ECE709
:1024F00070B516460D4604461EE02046FFF7DCFA8E
:1025000008B1012070BD681C16D0FDF7E7FF801BE5
:10251000A84200D885B920684069C04300060BD5A1
:10252000002044F8300F20216173A073216941F02D
:10253000200121612073E4E720684069C043000660
:10254000DBD4002070BD000010B58EB01C220B49FA
:102550006846FDF733FE0021684600F09EFD084CFA
:1025600006491C2220601C3107A8FDF727FE002128
:1025700007A800F092FD60600EB010BDE03A0008C0
:10258000000000200D4808B5816941F020018161FB
:10259000816901F020010091816941F008018161A8
:1025A000816901F008010091816941F004018161B4
:1025B000806900F00400009008BD00000010024097
:1025C0000D4810B50B4901600C4941600021802283
:1025D000C0E90212D201C0E904218161C161016236
:1025E000FEF76EF9002803D0BDE81040FDF734BEB9
:1025F00010BD000000540040F0020020A086010041
:102600000D4810B50B4901600C4941600021A02222
:10261000C0E902124FF48042C0E904218161C16126
:102620000162FEF74DF9002803D0BDE81040FDF728
:1026300013BE10BD0058004044030020A0860100D6
:102640000C4810B50A4901604FF4E13141600021A6
:1026500081600C22C160C0E904128161C161FFF791
:1026600044F8002803D0BDE81040FDF7F5BD10BDCB
:10267000003801409803002002880A8042884A807E
:102680008088888070470000064910B500200870D7
:102690000623054AA0210548FEF7EEF9002800D0E0
:1026A000012010BD820000201F110020F002002038
:1026B00008B50E49027807230A700288120A4A7088
:1026C00082788A70C278CA7002790A7142794A7136
:1026D000807988714FF47A700A460090A0210448EE
:1026E000FEF72CFA002800D0012008BD18110020A8
:1026F000F002002086B04049404C4FF00008D1E97C
:1027000000014FF4FA76CDE9030103A8FFF7D0FFEB
:1027100048B33BA000F0BEFA9DF81200401CC0B2C6
:102720008DF812003C2816D38DF812809DF81110F8
:102730004046491CC9B28DF811103C290BD38DF8C5
:1027400011009DF81010491CC9B28DF810101829FD
:1027500001D38DF81000304600F093FCFFF794FF92
:1027600098B12EA042E09DF810009DF812209DF82F
:1027700011108DE807009DF80F309DF80E20BDF870
:102780000C102EA000F086FAC6E7FDF7A7FE05465E
:102790004FF47A7702E0012000F073FC207820B932
:1027A000FDF79CFE401BB842F5D32078E8B13049D4
:1027B0003048FFF761FF2E4D0A20B5F9021091FB5A
:1027C000F0F291FBF0F300FB1217B5F9001091FB4A
:1027D000F0F200FB121291FBF0F1B5F90400CDE923
:1027E0000070254800F056FA02E024A000F052FAEA
:1027F000304600F046FC88E7D83A00088200002006
:102800005B4D61737465725D2053656E642054691D
:102810006D65204641494C45440D0A005B4D61738E
:102820007465725D20526561642053656E736F72CA
:10283000204641494C45440D0A0000005B4D617340
:102840007465725D2053656E642054696D653A202D
:10285000253034752D253032752D253032752025E3
:102860003032753A253032753A253032750D0A000E
:10287000840000201F110020443B00085B4D617361
:102880007465725D20526561642053656E736F726A
:102890002054494D454F55540D0A0000FEE7FEE710
:1028A00010B50449044800F00BF8BDE81040034897
:1028B000FDF7CEBF2C110020920000204403002021
:1028C00002780A700288120A4A7082788A704288F6
:1028D000120ACA7002790A718088000A487170472A
:1028E00002880A8082788A70C278CA7002790A7176
:1028F00042794A718079887170470000074810B5A5
:102900000178002909D0002101700548FDF704FE77
:10291000BDE810400248FDF79BBF10BD81000020BC
:102920004403002088B01D4F1D4C1E4E0A254FF455
:102930007A7800BFFFF7E2FF00F03AF8387828B164
:102940000020387016491848FFF7CAFFB6F9020090
:10295000B6F904C090FBF5F105FB110390FBF5F20D
:10296000B6F90010CDE9063C91FBF5F005FB10101F
:10297000CDE9040291FBF5F1A27960792379CDE9E3
:102980000030CDE90221E378A2782188074800F0E1
:1029900081F9404600F075FBCCE700008000002084
:1029A0008A0000209200002025110020883B0008AA
:1029B00010B5FDF793FD6521B0FBF1F201FB1202AA
:1029C0000F49C8320A800722B0FBF2F2C923B2FBDA
:1029D000F3F403FB142202F5C8724A8000EB800274
:1029E00002EBC0004FF47A72B0FBF2F302FB13006B
:1029F0008880BDE8104003490148FFF761BF00002F
:102A0000920000202C11002010B5502080F3118876
:102A1000BFF34F8FBFF36F8F00F096FF18B10449DB
:102A20004FF080500860002080F3118810BD000036
:102A300004ED00E030B58FB028216846FDF7D7FBE4
:102A400014210AA8FDF7D3FB01210804CDE90010E9
:102A50000024029402250491CDE907504FF4E010C0
:102A600009906846FEF7AEFB08B172B6FEE70F208C
:102A7000CDE90A054FF48060CDE90C4002210AA897
:102A80000E94FEF7A3FA002801D072B6FEE70FB04D
:102A900030BD70470148FEF782BD0000E003002012
:102AA000F0B50268194B1A4C1A4D4FF08047984206
:102AB00005D0B84203D0A04201D0A84203D122F0F1
:102AC00070064A683243984205D0B84203D0A0420B
:102AD00001D0A84203D122F44074CA6822434C6951
:102AE00022F08002224302608A68C2620A6882621F
:102AF000984201D109690163012141610169C90756
:102B000003D0016921F001010161F0BD002C0140F9
:102B1000000400400008004001680C3151E8002F1B
:102B200022F4907241E80023002BF5D101681431A2
:102B300051E8002F22F0010241E80023002BF5D1DB
:102B4000016B012909D101680C3151E8002F22F0F5
:102B5000100241E80023002BF5D1202180F842101B
:102B6000002101637047000070B5044600680169E8
:102B7000E26821F44051114301612169A0680843D2
:102B8000616908432168CA6841F20C639A430243B1
:102B9000CA6020684169A26921F440711143416112
:102BA0001E492068884202D1FEF7D6FA01E0FEF7FE
:102BB000C3FA00EBC00101EB0012606864218000E1
:102BC000B2FBF0F3B3FBF1F36FF018067343B2FB03
:102BD000F0F5B2FBF0F605EB8305322303EB0515A8
:102BE000B5FBF1F5B6FBF1F605F0F00505EB0615C2
:102BF000B2FBF0F6B2FBF0F0B0FBF1F06FF01802B0
:102C0000504306EB800003EB0010B0FBF1F02168AD
:102C100000F00F002844886070BD000000380140BB
:102C20002DE9F843984617460D460446089E24E0D1
:102C3000701C22D0FDF752FCA0EB0800B0421AD85D
:102C4000CEB12068C168490717D5802D15D0402D19
:102C500013D00168C94309070FD4016800254068F3
:102C600000902046FFF758FF0820606484F8405029
:102C70000120BDE8F8830320FBE72068006835EAFF
:102C8000000004D00020B842D2D00020F1E701209B
:102C9000F9E7FEE70FB4054B10B503A9044A029803
:102CA00000F028F810BC5DF814FB00003930000873
:102CB000980000200907090E002804DB00F1E0203D
:102CC00080F80014704700F00F0000F1E02080F859
:102CD000141D704702E008C8121F08C1002AFAD16B
:102CE00070477047002001E001C1121F002AFBD18C
:102CF000704700002DE9FF4F8BB08846054600263F
:102D000006E025280BD0DDE90D1290476D1C761CDE
:102D100028780028F5D10FB03046BDE8F08F0024A8
:102D2000A146A2460122AE4900E0044315F8013F46
:102D3000203B02FA03F00842F7D128782A2810D065
:102D40006FF02F022878A0F13001092915D809EB7E
:102D5000890102EB410144F0020400EB01096D1C02
:102D6000F0E758F8041B5FEA010903D544F4005466
:102D7000C9F1000944F002046D1C28782E2817D1EF
:102D800015F8010F44F004042A280ED06FF02F022A
:102D90002878A0F1300109290AD80AEB8A0102EB50
:102DA000410100EB010A6D1CF2E758F804AB6D1C01
:102DB00028786C280FD006DC4C2817D068280DD056
:102DC0006A2814D104E0742810D07A280FD10DE0BD
:102DD00044F400140AE044F4801401E044F4401484
:102DE0006978814202D104F580146D1C6D1C28782D
:102DF000692865D006DC00288DD0632827D0642898
:102E000006D15DE06E2808D073282AD0752877D0C7
:102E1000DDE90D129047761CE0E0C4F30250022871
:102E200009D003280DD0D8F8001004280DD00E606A
:102E300008F10408D2E0D8F80010F217C1E90062E6
:102E4000F6E7D8F800100E80F2E70E70F0E718F8F9
:102E5000041B8DF8001000208DF80100EB460120C6
:102E600003E058F804BB4FF0FF3061074FF0000754
:102E700001D40AE07F1C57450DDA8742FADB1BF8C4
:102E800007100029F6D106E07F1C8742FCDB1BF807
:102E900007100029F8D1DDE90D23A9EB07008146D1
:102EA000214600F0B1F83044C61904E0DDE90D1206
:102EB0001BF8010B90477F1EF8D22146484688E058
:102EC00058F8040BC4F302514FF00A0B032900D148
:102ED00000B2042900D140B2002802DA40422D217C
:102EE00002E0210505D52B218DF82410012104E0F5
:102EF00006E0E10710D02021F6E708AF089113E0C3
:102F000058F8040BC4F302514FF00A0B032900D107
:102F100080B2042900D1C0B20021EEE75946FDF786
:102F200071F9303107F8011D0028F7D1ADEB07002A
:102F300000F1200B600702D524F4803401E04FF04B
:102F4000010ADA4502DDAAEB0B0000E00020824610
:102F500000EB0B0108980144A9EB01000A90E00383
:102F600006D4DDE90D2321460A9800F04DF8064409
:102F70004FF0000908E009A911F80900DDE90D1278
:102F8000904709F10109761C08998945F3DBE003B4
:102F90000CD5DDE90D2321460A9800F035F80644EA
:102FA00004E0DDE90D1230209047761CBAF10001F3
:102FB000AAF1010AF5DC05E0DDE90D1217F8010BB5
:102FC0009047761CBBF10001ABF1010BF4DC0A98D1
:102FD0002146DDE90D2300F005F806446D1C97E657
:102FE000092801002DE9F041044600251E46174638
:102FF000880404D405E039462020B0476D1C641EC7
:10300000F9D52846BDE8F0812DE9F04104460025B8
:103010001E469046C80301D5302700E020278804CB
:1030200004D505E041463846B0476D1C641EF9D50D
:103030002846BDE8F081000013B54FF6FF7301226A
:1030400069460248FEF7BCFB00981CBD98030020AF
:10305000FDF700FFFFF7EEFCFFF794FAFFF7B0FA79
:10306000FFF7CEFAFFF7ECFAFFF71AFCFFF76CFA5E
:1030700000F00EF8FEE701460020842900D0C81CAD
:10308000704710B500B9012000F020FB002010BDF2
:1030900010B500F041FB002010BD7FB50D46044681
:1030A0004169B0F9080081B1A16971B1FFF7E3FF8F
:1030B000D4E905128DE80700D4E900102B462269F7
:1030C00000F017FC039004B070BDFFF7D4FF03A914
:1030D000CDE90001208A2B4682B2D4E9001000F02D
:1030E000DBFB012801D00020EDE70398EBE70000AF
:1030F0002DE9F041184C0F460546E6682068001D92
:1031000000F01CFA38B9206890F82C100120884093
:10311000216981432161681C07D137B12168BDE86D
:10312000F0410E48091D00F04DBA20683544B54203
:103130004560216805D2A06BBDE8F041091D00F093
:1031400029BA606B091D00F025FAA06A854200D2F9
:10315000A562BDE8F08100001800002004050020F1
:103160002DE9F041054600F039FA2E4CA068401CCC
:10317000A06020682C4F10B1606940B32DE025603D
:10318000A068012829D1002606EB860007EB800005
:1031900000F0F2F9761C072EF6D323488C3000F0AD
:1031A000EBF92148A03000F0E7F91F48B43000F0F7
:1031B000E3F91D48C83000F0DFF91B48DC3000F0AF
:1031C000DBF919488C3060631430A06305E0206897
:1031D000E96AC06A884200D82560606A401C606263
:1031E000E96A0120226988401043206101EB8100D7
:1031F00007EB8000291D00F0E5F900F00FFA606987
:1032000000280CD02068E96AC06A884207D20749C2
:103210004FF080500860BFF34F8FBFF36F8FBDE852
:10322000F0810000180000202804002004ED00E0D8
:1032300010B5044690F8510058B101280CD002286E
:103240000FD0502080F31188BFF34F8FBFF36F8FE3
:10325000FEE7206B00F0F6F92046BDE8104000F0D4
:10326000F1B910BD10484FF44061420706D0C01DAF
:103270000D4920F00700411AC1F540610B4A0023B7
:103280000144C2E900030839183A21F0070111602E
:103290004B600B600B1AC0E9001393604FF00040C5
:1032A0005360506170470000180500206C0000203A
:1032B000144E154CA6F1C8074FF08058DFF84C901B
:1032C00012E000BF00F08AF9F068C568281D00F020
:1032D00035F9A068401EA0606068401E606000F084
:1032E0009DF92846FFF7A4FF60680028EAD13868F6
:1032F0000128F9D9C9F80080BFF34F8FBFF36F8F52
:10330000F2E70000F00400201800002004ED00E0C7
:103310002DE9F0479A46DDE9098481466FF0030301
:10332000206B03EB82021044089E20F00707780709
:1033300007D0502080F31188BFF34F8FBFF36F8FFA
:10334000FEE7002561B1002023180A5C83F83420D1
:103350000A5C12B1401C1028F6D384F8435001E0F7
:1033600084F83450072E00D30626E662C4E91165BE
:10337000201D00F00CF904F1180000F008F9246198
:10338000C6F107006462A061E56484F850505246BB
:103390004946384600F0C0F82060B8F1000F01D06F
:1033A000C8F80040BDE8F08730B5114900E011468B
:1033B0000A688242FBD34B685C18844203D14068A0
:1033C00018444860084643681C18944209D1084CC8
:1033D000183C2468A24209D052681A4442600A6824
:1033E00012680260814200D0086030BD0460F9E7D5
:1033F0006C0000200648416B096829B1416BC9681F
:10340000C9684968816270474FF0FF31FAE70000F0
:103410001800002008484068401C4FF0500080F31E
:10342000118804D0BFF34F8FBFF36F8FFEE7BFF358
:103430004F8FBFF36F8FFEE7740000202DE9F0413E
:103440000546002700F09EF9324E306808B9FFF7B4
:1034500009FF706905424ED1C5B3083568070ED023
:1034600005F00700C0F108000544680707D05020A8
:1034700080F31188BFF34F8FBFF36F8FFEE72DB33B
:103480007068854237D82348183001460C6801E03F
:1034900020460C466168A94202D221680029F7D172
:1034A00031688C4227D0076821680160606808375E
:1034B000411B10290FD96019420708D0502080F312
:1034C0001188BFF34F8FBFF36F8FFEE713E04160AA
:1034D0006560FFF769FF61687068401A7060B268E4
:1034E000904200D2B060706901430020C4E900013D
:1034F000F068401CF06000F08DFA780707D050208B
:1035000080F31188BFF34F8FBFF36F8FFEE738460C
:10351000BDE8F0815400002010B5031F4FF0807407
:103520001C601B1F21F001011960191F024B0B6069
:10353000143940380A6010BD15340008D0E9013252
:1035400001699A60D0E901235A604A68824201D138
:1035500082684A60002202610868401E08600868AC
:1035600070470000034B036003F1540008608020A3
:10357000106070479C00002000F108014FF0FF32FE
:10358000C0E90112C16001610021016070470021A2
:103590000161704730B50B685A1C02D000F1080277
:1035A00002E0026904E02246546825689D42FAD987
:1035B00053684B6099608A60516008610168491CDA
:1035C000016030BD42684A6093688B6093685960BF
:1035D000916008610168491C01607047502080F3C8
:1035E0001188BFF34F8FBFF36F8F0A494868401CA3
:1035F000486001280CD10848006810F0FF0F07D080
:10360000502080F31188BFF34F8FBFF36F8FFEE719
:10361000704700007400002004ED00E0084948688D
:1036200028B1401E486001D180F3118870475020B6
:1036300080F31188BFF34F8FBFF36F8FFEE7000059
:103640007400002070B500282AD0164DA0F108049F
:1036500060686969084207D1502080F31188BFF380
:103660004F8FBFF36F8FFEE722683AB1502080F38F
:103670001188BFF34F8FBFF36F8FFEE78843606001
:1036800000F080F860686968084468602046FFF7C9
:103690008BFE2869401C2861BDE8704000F0BAB973
:1036A00070BD0000540000204FF0E02000210161B7
:1036B000816105494FF47A720968B1FBF2F1491E44
:1036C00041610721016170471400002010B502001C
:1036D00014D00F48006B38B1502080F31188BFF32D
:1036E0004F8FBFF36F8FFEE700F04CF800211046BC
:1036F000FFF7FEFC00F08EF9002807D105494FF0D6
:1037000080500860BFF34F8FBFF36F8F10BD000074
:103710001800002004ED00E010B586B000240394EA
:1037200005AA04A903A80494FFF71CFFDDE903011F
:103730000094CDE9011000230EA11048059A00F075
:10374000D8F80F490028C86211D0502080F31188A2
:10375000BFF34F8FBFF36F8F4FF0FF3088620120B0
:103760004861CC6006B0BDE8104000F041B806B03A
:1037700010BD000049444C4500000000B132000873
:10378000180000200248016B491C016370470000CB
:10379000180000201448016B11B10121C16170476C
:1037A0000021C1610169B1FA81F1C1F11F0101EB91
:1037B00081020E4951F822306BB101EB820101F117
:1037C00008034A6852684A609A4201D152684A60C6
:1037D000D16801607047502080F31188BFF34F8F8C
:1037E000BFF36F8FFEE700001800002028040020C0
:1037F0001CB5264908780190FF20087008788DF8DC
:1038000000009DF800009DF8002000F0F0009042BC
:1038100007D0502080F31188BFF34F8FBFF36F8F15
:10382000FEE79DF800001A4C00F0500020700720C1
:10383000A06005E09DF8002052008DF80020401E99
:103840009DF800201206F5D4A060032807D0502070
:1038500080F31188BFF34F8FBFF36F8FFEE74FF4F4
:103860004070A060019808700A48016841F4700136
:103870000160016841F070410160FFF715FF002011
:103880006060FCF74FFC00201CBD000000E400E07D
:103890007400002020ED00E02DE9FF5F8346DDE9A4
:1038A0000E87994616468A469000FFF7C7FD050029
:1038B0001CD05420FFF7C2FD040014D00020256363
:1038C00084F85100CDE90240CDE900874B463246ED
:1038D00051465846FFF71CFD2046FFF741FC0120EA
:1038E00004B0BDE8F09F2846FFF7ACFE4FF0FF3074
:1038F000F6E7F0B585B0DDE90B640A9DA6B1DCB151
:10390000542700972663022684F85160002604AFEE
:10391000CDE90246CDE90057FFF7FAFC2046FFF754
:103920001FFC049805B0F0BD502080F31188BFF350
:103930004F8FBFF36F8FFEE7502080F31188BFF3E6
:103940004F8FBFF36F8FFEE72DE9F0412F4C00261C
:10395000206B28B1A069401CA0613046BDE8F08111
:10396000E5686D1CE56013D1606B006838B15020CC
:1039700080F31188BFF34F8FBFF36F8FFEE7606B4B
:10398000A16B6163A063206A401C2062FFF732FDD7
:10399000A06ADFF87C80854209D3606B0068A0B123
:1039A000606BC068C7687868854211D2A0622068E1
:1039B000C06A00EB800158F82100012800D90126D7
:1039C000E0690028C9D00126C7E74FF0FF30EDE7D6
:1039D000381DFFF7B3FDB86A18B107F11800FFF7FB
:1039E000ADFDF96A0120226988401043206101EB96
:1039F000810108EB8100391DFFF7E4FDF86A2168B9
:103A0000C96A8842C9D30126C7E700001800002010
:103A1000280400202DE9F0472C4D00242746286B70
:103A200038B1FFF7DBFD286B401E2863286B40B1DF
:103A300046E0502080F31188BFF34F8FBFF36F8FA4
:103A4000FEE7A968224E0120D1B3A6F1B409804651
:103A50003068E8B1F068C46804F11800FFF76EFD43
:103A6000201DFFF76BFDE06A2A6908FA00F1114397
:103A7000296100EB800109EB8100211DFFF7A2FD08
:103A8000E06A2968C96A8842E2D3C5F81C80DFE78A
:103A90000CB1FFF7AFFCAC6944B14646FFF754FFE9
:103AA00000B1EE61641EF9D10020A861E86938B167
:103AB0000849012738070860BFF34F8FBFF36F8FA6
:103AC000FFF7ACFD3846BDE8F08700001800002085
:103AD000DC04002004ED00E0EA07081B0C000000F5
:103AE000F43B0008F526000800000000000000007C
:103AF000800000000000000000000000E83B00081B
:103B000025290008000000000000000080000000DF
:103B10000000000000000000010202030405060787
:103B200008090A0B0C0D0E0F101000000000000019
:103B3000000001020304060708090000000001025A
:103B4000030400005B4D61737465725D2052656112
:103B5000642053656E736F723A2054656D703D2515
:103B6000642E256420432C2048756D693D25642E04
:103B700025642025252C204C696768743D25642028
:103B80006C75780D0A0000005B536C6176655D20F2
:103B900020526563762054696D653A20253034756E
:103BA0002D253032752D2530327520253032753A6D
:103BB000253032753A25303275207C2054656D7081
:103BC0003D25642E256420432C2048756D693D25D4
:103BD000642E25642025252C204C696768743D25BA
:103BE00064206C75780D0A00536C617665546173BE
:103BF0006B0000004D61737465725461736B00005B
:103C0000203C0008000000209C000000D42C00088C
:103C1000BC3C00089C0000209C140000E42C000820
:103C20000000000000000000010000001000000083
:103C30000000000000127A000000000000000000F8
:103C40000000000000000000000000000000000074
:103C50000000000000000000000000000000000064
:103C60000000000000000000000000000000000054
:103C70000000000000000000000000000000000044
:103C80000000000000000000000000000000000034
:103C90000000000000000000AAAAAAAA000000007C
:103CA00000000000000000000000EA070101000021
:0C3CB0000000FA00F4012C0100000000EC
:04000005080000ED02
:00000001FF
