:020000040800F2
:10000000D8160020210200085F1A00084F150008CA
:100010005D1A00088B030008451D00080000000061
:10002000000000000000000000000000890100083E
:100030009D03000800000000CD010008611A0008BF
:100040003B0200083B0200083B0200083B0200089C
:100050003B0200083B0200083B0200083B0200088C
:100060003B0200083B0200083B0200083B0200087C
:100070003B0200083B0200083B0200083B0200086C
:100080003B0200083B0200083B0200083B0200085C
:100090003B0200083B0200083B0200083B0200084C
:1000A0003B020008C11C00083B0200083B0200089C
:1000B0003B0200083B0200083B0200083B0200082C
:1000C0003B0200083B0200083B0200083B0200081C
:1000D0003B0200083B0200083B0200083B0200080C
:1000E0003B0200083B0200083B02000800F002F857
:1000F00000F03AF80AA090E8000C82448344AAF188
:100100000107DA4501D100F02FF8AFF2090EBAE885
:100110000F0013F0010F18BFFB1A43F0010318473B
:100120003C2700005C270000103A24BF78C878C143
:10013000FAD8520724BF30C830C144BF04680C60ED
:10014000704700000023002400250026103A28BF35
:1001500078C1FBD8520728BF30C148BF0B60704739
:100160001FB51FBD10B510BD00F0D6F81146FFF742
:10017000F7FF01F0F8FD00F0F4F803B4FFF7F2FF29
:1001800003BC00F0FBF80000224B19680868B0E8D7
:10019000F00F80F30988BFF36F8F4FF0000080F3FA
:1001A00011884EF00D0E70470000000006480068F0
:1001B000006880F3088862B661B6BFF34F8FBFF363
:1001C0006F8F00DF00BF00BF08ED00E0EFF3098094
:1001D000BFF36F8F0F4B1A6820E9F00F106008B55E
:1001E0004FF0500080F31188BFF34F8FBFF36F8F34
:1001F00002F054F94FF0000080F31188BDE8084088
:1002000019680868B0E8F00F80F30988BFF36F8FB2
:10021000704700BF18000020EFF305807047000012
:100220000948804709480047FEE7FEE7FEE7FEE78A
:10023000FEE7FEE7FEE7FEE7FEE7FEE704480549C6
:10024000054A064B70470000EB1A0008ED00000855
:10025000D8100020D8160020D8120020D812002074
:1002600010B5203AC0F00B80B1E81850203AA0E851
:100270001850B1E81850A0E81850BFF4F5AF5FEA85
:10028000027C24BFB1E81850A0E8185044BF18C938
:1002900018C0BDE810405FEA827C24BF51F8043BDF
:1002A00040F8043B08BF7047D20728BF31F8023B33
:1002B00048BF11F8012B28BF20F8023B48BF00F8C7
:1002C000012B70474FF0000200B513469446964646
:1002D000203922BFA0E80C50A0E80C50B1F1200159
:1002E000BFF4F7AF090728BFA0E80C5048BF0CC007
:1002F0005DF804EB890028BF40F8042B08BF704765
:1003000048BF20F8022B11F0804F18BF00F8012BD6
:100310007047704770477047754600F02BF8AE463F
:1003200005006946534620F00700854618B020B501
:10033000FFF784FFBDE820404FF000064FF00007B4
:100340004FF000084FF0000B21F00701AC46ACE87D
:10035000C009ACE8C009ACE8C009ACE8C0098D46EA
:10036000704710B50446AFF300802046BDE810404A
:10037000FFF703BF0048704778100020014918209C
:10038000ABBEFEE7260002007047FEE701F0D4FB9B
:1003900001F0FEFA012001F0F9FCF7E7704772B6B0
:1003A000FEE7000070B5044600F08AF90546601CBF
:1003B00002D004480078044400F082F9401BA042B7
:1003C000FAD370BD080000202DE9F04300233E4F12
:1003D0000F2573E001229A400A406DD023F00304F8
:1003E000E619D6F808809C074FEA147C05FA0CF948
:1003F00009EA0804DFF8D480404502D14FF0000834
:1004000016E0DFF8CC80404502D14FF001080FE044
:10041000DFF8C080404502D14FF0020808E0DFF865
:10042000B880404502D14FF0030801E04FF00408C6
:1004300008FA0CF8A04522D1284CD4F800C02CEAC8
:10044000020CC4F800C0241DD4F800C02CEA020C31
:10045000C4F800C0214C0C34D4F800C02CEA020CC3
:10046000C4F800C0241FD4F800C02CEA020CC4F861
:1004700000C0D6F808C02CEA090CC6F808C0FF2A4C
:1004800001D8064601E000F104064FEA830401D9D1
:10049000A4F12004D6F800C005FA04F82CEA080CF0
:1004A0004FF0040808FA04F84CEA080CC6F800C03B
:1004B000C46824EA0204C46003F1010331FA03F2C0
:1004C00088D1BDE8F0830000000001400008014031
:1004D000000C0140001001400014014000040140E4
:1004E0002DE9F84FDFF8B8910024A9F1040B234659
:1004F0000F2709F1040AABF1040EC9E00125A5405C
:100500002A40AA427DD1674ED1F804C0ACEB060860
:10051000B44532D014DCBCF1030F3AD009DCBCF195
:10052000000F2AD0BCF1010F1CD0BCF1020F31D159
:100530001DE0BCF1110F17D0BCF1120F2AD119E048
:10054000B8F5881F19D006DCB8F5803F15D0B8F58E
:10055000801F1FD111E0B8F5001F0ED0B8F5041FA1
:1005600018D10AE0CB6815E0CB681B1D12E0CB6800
:1005700008330FE0CB680C330CE08B682BB1012BF8
:100580004FF0080303D0456104E0042302E0056155
:1005900000E00023FF2A01D8064601E000F104062E
:1005A0004FEA840501D9A5F12005D6F8008007FAA5
:1005B00005FC28EA0C0803FA05F548EA0508C6F820
:1005C00000804D68ED0062D5374DAE6946F00106FA
:1005D000AE61AD6924F0030605F001050095334DC9
:1005E00006EB050CDCF80850A607360F07FA06F8EC
:1005F00025EA0805DFF8B880404503D14FF0000830
:1006000017E044E0DFF8AC80404502D14FF001082C
:100610000FE0DFF8A480404502D14FF0020808E067
:10062000DFF89880404502D14FF0030801E04FF019
:10063000040808FA06F848EA0508CCF808804D686E
:10064000D9F80060ED024D4601D5164300E096430F
:100650002E604D68DAF80060AD02554601D51643AC
:1006600000E096432E604D68DBF80060AD035D4608
:1006700001D5164300E096432E604D68DEF8006019
:10068000ED03754601D5164300E096432E60641CC9
:100690000D682A46E5407FF431AFBDE8F88F0000D1
:1006A0000804014000001110001002400000014049
:1006B00000080140000C01400010014000140140FE
:1006C00001488068704700000800002010B5040051
:1006D00013D0242084F83D002068016821F0010136
:1006E0000160204600F096FA0020206484F83D0066
:1006F00044F8300FA073207310BD012010BD00001E
:1007000070B5040025D094F83D00002520B984F888
:100710003C50204600F09AFA242084F83D002068DE
:10072000016821F0010101602068016841F4004185
:1007300001602068016821F40041016000F02EFC96
:100740004D4A6168914201D84C4900E04C498842C9
:1007500001D2012070BD4B492368B0FBF1F15E6806
:1007600026F03F060E435E606368934206D94FF45D
:10077000967359434FF47A73B1FBF3F12368491C24
:100780001E6A26F03F06314319626168914210D813
:100790004900401EB0FBF1F2521CC2F30B02042AC6
:1007A00001D2042022E0B0FBF1F0401CC0F30B00AA
:1007B0001CE0A268F2B301EBC10303EB0116431E78
:1007C000B3FBF6F35B1C43F480431B0549D092B3A3
:1007D00001EBC10202EB0111401EB0FBF1F0401C25
:1007E000C0F30B0040F4804040F400402168CA6927
:1007F0004CF6FF739A431043C861D4E907100143D4
:100800002068026822F0C00211430160D4E90301AC
:1008100001432068826848F2FF339A4311438160A4
:10082000D4E9050108432168CA6822F0FF02104399
:10083000C86001E00EE016E02068016841F00101A7
:1008400001602564202084F83D00256384F83E5033
:10085000002070BD01EB4106431EB3FBF6F35B1CA9
:10086000B3E70120C2E701EB4101401EB0FBF1F00C
:10087000401CC0F30B00B7E7A086010080841E0077
:1008800000093D0040420F002DE9FF4F83B00025D5
:10089000DDE910799A4693460446DDF848800095D4
:1008A000FFF70EFF064694F83D0020287CD119235F
:1008B000012288492046009600F060FF0028F5D10B
:1008C00094F83C0001286FD0012084F83C00206897
:1008D0000168C90703D1016841F001010160206886
:1008E000016821F400610160222084F83D0040206D
:1008F00084F83E0025646762A4F82A90608D208504
:100900007548E062CDE9008653465A462046049970
:1009100000F036FE00287CD1208DDFF8C091202722
:1009200068B1012814D00228206801681ED041F463
:10093000806101602068416980690090BCE02068A6
:10094000416981690091016841F400710160B3E07F
:100950002068016821F48061016072B620684169F5
:1009600081690091016841F400710AE041F400617D
:10097000016072B62068416981690091016821F4C3
:100980008061016062B697E0032865D801280CD029
:10099000022843464FF000024946204600960BD0FD
:1009A00000F0ECFEA8BB0CE091E032464146204648
:1009B00000F08AFF68BB72E000F0E0FE48BB72B650
:1009C00033E02068016821F48061016072B620681C
:1009D0000069616A0870606A401C6062208D401E78
:1009E0002085608D401E60853D4846F2A811006854
:1009F000B0FBF1F0C0EBC00000EB80000090401EA7
:100A0000009007D020684069C04340070DD500988A
:100A1000F5E727E044F8305F6773A573206940F07D
:100A20002000206162B625731CE02068016841F453
:100A30000071016020680069616A0870606A401C8A
:100A40006062218D491E2185618D491E618562B6D6
:100A500021680969017026E032464146204600F0CF
:100A600033FF18B1012007B0BDE8F08F206800699E
:100A7000616A0870606A401C6062208D401E81B20D
:100A80002185608D401E608520684269D2435207EF
:100A900012D4032903D1016821F480610160206828
:100AA0000069616A0870606A401C6062208D401EA7
:100AB0002085608D401E6085208D00287FF464AF06
:100AC00084F83D7084F83E5084F83C50CBE7022017
:100AD000C9E70000020010000000FFFF0400010051
:100AE000140000202DE9FF4F83B09A46DDE91197ED
:100AF00093460446DDF84080FFF7E2FD054694F892
:100B00003D0020287FD1192301224049204600952D
:100B100000F034FE002876D194F83C00012872D011
:100B2000012084F83C0020680168C90703D10168EE
:100B300041F0010101602068016821F40061016059
:100B4000212084F83D00402084F83E0000262664E1
:100B5000C4F82480A4F82A90608D20852C48E06297
:100B6000CDE9007553465A462046049900F086FDAB
:100B700070B930E02A463946204600F0DDFE58B113
:100B8000206C042804D12068016841F400710160E0
:100B9000012007B0BDE8F08F606A21680078086125
:100BA000606A401C6062218D491E89B22185628D78
:100BB000521E628522685369DB435B070BD469B11F
:100BC00000781061606A401C6062208D401E2085A4
:100BD000608D401E6085208D0028CBD12A46394685
:100BE000204600F09FFD0028CAD154F83D0B016853
:100BF00041F400710160202004F81E09E677667751
:100C00000020C6E7FFE70220C3E700000200100053
:100C10000000FFFF10B50068094988420FD109485C
:100C2000C16921F40011C161074C40212046FFF742
:100C3000CBFB2046BDE810408021FFF7C5BB10BDAF
:100C40000054004000100240000C014010B586B076
:100C50000021009101910291039100680F4988429F
:100C60001AD10F4CA06940F00800A061A069694644
:100C700000F008000490C020009012200190032092
:100C800003900848FFF72CFCE06940F40010E06195
:100C9000E06900F40010049006B010BD005400405C
:100CA00000100240000C01400248816802781144A3
:100CB0008160704708000020074810B5016841F0C6
:100CC00010010160032000F0A1F80F2000F006F8E9
:100CD00000F04AF8002010BD0020024030B5054663
:100CE0001C4887B0816941F400618161806906A96F
:100CF00000F40060009001A800F030F900F05EF907
:100D00001549164AB0FBF1F11548491E02604160D1
:100D100040F2E7320021C0E903218160816100F0E7
:100D200015FB040012D10E4800F03EFB04000DD16B
:100D3000192000F03DF8102D07D200222946192075
:100D400000F044F80748056000E0012407B02046A1
:100D500030BD00000010024040420F00002C014056
:100D6000400300200C0000200F4808B5816941F0C5
:100D700001018161816901F001010091C16941F0C6
:100D80008051C161C069002200F0805000900F21A5
:100D9000901E00F01BF80548416821F0E06141F029
:100DA0000071416008BD00000010024000000140D9
:100DB000002809DB00F01F0201219140400980005A
:100DC00000F1E020C0F8001170470000F0B40E4BB5
:100DD0001B680C46C3F30223C3F10705042D00D999
:100DE0000425191D072901D2002300E0DB1E01267E
:100DF00006FA05F1491E214099409E40761E164094
:100E00003143F0BC00F09FBF0CED00E0064900F05C
:100E1000070208684FF6FF03184040EA0220034A21
:100E200010430860704700000CED00E00000FA0578
:100E30002DE9F0470F46050061D0434E306800F0C1
:100E40000700B84209D2306820F00700384330600C
:100E5000306800F00700B84251D128683B4C810748
:100E600012D5400703D5606840F4E06060602878E0
:100E7000000703D5606840F4605060606068A9684E
:100E800020F0F000084360602878C00728D0686828
:100E9000012810D02168022810D0890700292EDAF5
:100EA000616821F0030101436160FFF709FC80469E
:100EB00041F288390DE021688903EFE78901EDE708
:100EC000FFF7FEFBA0EB0801494502D90320BDE86E
:100ED000F0876068696800F00C00B0EB810FEFD11B
:100EE000306800F00700B8420BD9306820F00700E6
:100EF00038433060306800F00700B84201D001206C
:100F0000E5E72878400705D56068E96820F4E060E7
:100F1000084360602878000706D56068296920F4D6
:100F2000605040EAC100606000F058F86168084A0B
:100F3000C1F30311515CC8400649086006480068C7
:100F4000FFF7CCFE0020C2E7002002400010024064
:100F50002A280008140000200C0000200F22026044
:100F60000C4A536803F003034360536803F0F00333
:100F70008360536803F4E063C36052684FF4E06336
:100F800003EAD20202610448006800F0070008602A
:100F9000704700000010024000200240044805494C
:100FA00000684968044AC1F30221515CC840704797
:100FB00014000020001002403A28000804480549A7
:100FC00000684968044AC1F3C221515CC8407047B7
:100FD00014000020001002403A2800080E4A516810
:100FE0000E4801F00C03042B11D0082B0FD10C4834
:100FF000C1F38343C903C05C0AD55168084AC1F3F1
:101000004041921E515C054A5043B0FBF1F07047DD
:1010100004494843704700000010024000127A0063
:101020001A28000800093D002DE9F84F040070D08F
:101030002078C04DC00749D06868C0F381000128FE
:1010400007D06868C0F38100022809D16868C0032E
:1010500006D52868800339D560680028E7D035E0D8
:101060006068B0F5803F0BD010B1B0F5A02F11D063
:10107000286820F480302860286820F4802002E06E
:10108000286840F480302860606890B1FFF718FB52
:1010900006460AE0286840F480202860F0E700BF98
:1010A000FFF70EFB801B642873D828688003F7D5F0
:1010B0000CE0FFF705FB064605E000BFFFF700FB6D
:1010C000801B6428F0D828688003F7D420789A4ED3
:1010D00080074FF001094FF0000839D5686810F01B
:1010E0000C0F07D06868C0F38100022809D1686836
:1010F000C00306D42868800714D52069012808D1C8
:1011000010E02069B0B1C6F80090FFF7D9FA0746A1
:1011100005E00AE1FFF7D4FAC01B0228C4D828680A
:101120008007F7D52868616920F0F80040EAC1001F
:1011300028600DE0C6F80080FFF7C2FA074604E019
:10114000FFF7BEFAC01B022823D828688007F7D40F
:10115000207800072CD57948A169D9B1C0F8009052
:10116000FFF7AEFA074604E0FFF7AAFAC01B022811
:101170000FD8686A8007F7D571484FF4FA510068B4
:10118000B0FBF1F0009000BF0098411E0091FAD230
:101190000EE080E0C0F80080FFF792FA074604E016
:1011A000FFF78EFAC01B022875D8686A8007F7D44B
:1011B0002078400760D5E8690027C00008D4E869B6
:1011C00040F08050E861E869012700F0805000900D
:1011D0005C480168C90513D40168834641F48071F5
:1011E0000160FFF76DFA824606E000BFFFF768FA7C
:1011F000A0EB0A0064284ED8DBF80000C005F5D546
:10120000E06801280AD008B1052813D0286A20F028
:1012100001002862286A20F0040002E0286A40F0F9
:1012200001002862E06841F2883B98B1FFF748FA74
:1012300082460BE0286A40F004002862EEE700BF17
:10124000FFF73EFAA0EB0A0159455AD8286A8007F1
:10125000F6D50CE0FFF734FA824605E0FFF730FAE6
:10126000A0EB0A0159454CD8286A8007F6D41FB173
:10127000E86920F08050E861E06988B36968C1F3EB
:101280008101022944D00228C6F8608004D0FFF70B
:1012900017FA044638E034E0FFF712FA074604E094
:1012A000FFF70EFAC01B02282BD828688001F7D45C
:1012B000206AB0F5803F05D16868A16820F400304D
:1012C00008436860D4E908010843696821F474118F
:1012D00008436860C6F86090FFF7F2F9044606E03C
:1012E00025E000BFFFF7ECF9001B022809D82868A9
:1012F0008001F7D51BE000BFFFF7E2F9001B0228D1
:1013000002D90320BDE8F88F28688001F4D40EE0EC
:101310000128F7D06868226A00F48031914204D134
:10132000616A00F47010884201D00120EAE70020D1
:10133000E8E7000000100240000042428004424200
:1013400014000020007000407047704710B5040082
:1013500003D094F83D0010B107E0012010BD00203B
:1013600084F83C00204600F01EF8022084F83D007E
:10137000211D206800F0AAFC012084F8460084F8B2
:101380003E0084F83F0084F8400084F8410084F86F
:10139000420084F8430084F8440084F8450084F84F
:1013A0003D00002010BD704790F83D10012901D08C
:1013B00001207047022180F83D100168CA6842F0A0
:1013C0000102CA6000680B49884208D0B0F1804F22
:1013D00005D00949884202D00849884204D1816871
:1013E00001F00701062903D0016841F00101016005
:1013F00000207047002C014000040040000800401D
:1014000070472DE9F04104460068C66805694FF051
:101410000007A90713D5B10711D5F91E01610120F5
:101420002077206880698007204602D0FFF7E8FF18
:1014300004E000F07EF8204600F07CF8277768078B
:1014400016D5700714D521686FF0040008610220DA
:1014500020772068806910F4407F204602D0FFF793
:10146000CFFF04E000F065F8204600F063F827772E
:10147000280715D5300713D521686FF008000861DB
:10148000042020772068C0698007204602D0FFF73B
:10149000B7FF04E000F04DF8204600F04BF8277746
:1014A000E80616D5F00614D521686FF01000086123
:1014B000082020772068C06910F4407F204602D0C1
:1014C000FFF79EFF04E000F034F8204600F032F809
:1014D0002777E80708D0F00706D021686FF00100F1
:1014E0000861204600F028F8280608D5300606D501
:1014F00021686FF0800008612046FFF725FF68062D
:1015000008D5700606D521686FF0400008612046B6
:1015100000F01CF8A8060AD5B00608D521686FF0BF
:10152000200008612046BDE8F041FFF70EBFBDE88E
:10153000F08170477047000000680349884201D17C
:10154000FFF7B2BB70470000002C01407047FEE778
:1015500001684A69D24352050FD46FF480624A6130
:10156000002140F8301F202242738173026942F04B
:1015700004020261017301207047002070470000DF
:101580002DE9F84F0446006889460B9D016898468E
:10159000174641F4806101602068016841F4807160
:1015A000016000954FF0011B0022594620460A9B1E
:1015B00000F0E4F84FF4007A40B120680068C005FC
:1015C00001D5C4F840A00320BDE8F88F216809F0D8
:1015D000FE0008612B46284920460A9A00F016F9B9
:1015E000F0BB20684169806900902A4620460A992C
:1015F00000F0A2F940B1206C04283AD120680168BB
:1016000041F40071016034E0FEB2B8F1010F09D07D
:101610002168380A08612A4620460A9900F08CF9A8
:101620000028E8D1206806612A4620460A9900F081
:1016300083F90028DFD12068016841F480710160DE
:1016400000950022594620460A9B00F097F8002892
:10165000B3D1216809F0FF0040F00100086100E00B
:1016600007E02B46044920460A9A00F0CFF80028EC
:10167000AAD00120A8E70000020001002DE9F843EC
:10168000044600680D46DDE908970168984616464D
:1016900041F4807101604B4600224FF00111204659
:1016A000009700F06BF848B120680068C00502D5CB
:1016B0004FF4007020640320BDE8F883216805F032
:1016C000FE0008613B464A461549204600F09EF858
:1016D00088B920684169806900903A4649462046A9
:1016E00000F02AF948B1206C042804D12068016870
:1016F00041F4007101600120DEE7F5B2B8F1010F9D
:1017000009D02168300A08613A464946204600F06F
:1017100013F90028E7D1206805610020CCE700001C
:101720000200010070B516460D4604461EE0204634
:10173000FFF70EFF08B1012070BD681C16D0FEF740
:10174000BFFF801BA84200D885B920684069C0430C
:1017500040070BD5002044F8300F20216173A0739F
:10176000216941F0200121612073E4E7206840698C
:10177000C0434007DBD4002070BD00002DE9F047D6
:10178000984617460D460446C1F30746DDF82090FB
:101790002AE000BFB8F1FF3F26D0FEF791FFA0EB93
:1017A0000901414502D8B8F1000F1DD12068012E72
:1017B00016D0806925EA00000004000C12D0002039
:1017C000B84211D1002044F8300F20216173A0737A
:1017D000216941F02001216120730120BDE8F087DB
:1017E0004069E7E70120EBE72068012E0AD0806915
:1017F00025EA00000004000C06D00020B842C9D041
:101800000020EBE74069F3E70120F7E72DE9F04717
:10181000984616460D4604464FF000094FF0200A40
:10182000C1F3074723E020684069C043400515D451
:101830002068016841F40071016021686FF48060E4
:101840004861C4F8309084F83DA084F83E90216C43
:1018500041F00401216484F83C9021E0701C06D022
:10186000FEF72EFFA0EB0800B04203D816B1012FFF
:101870001FD021E02068012F15D0806925EA0000E3
:101880000004000C18D000BF44F8309F84F80DA06D
:1018900084F80E90216941F02001216184F80C90B8
:1018A0000120BDE8F087406925EA00000004000C33
:1018B000EAD12068406901E02068806925EA0000DB
:1018C0000004000CAFD1ECE72DE9F0410025904673
:1018D0000E460446202728E04069C043C0060CD4C9
:1018E00054F8301B6FF01000486144F810596777C6
:1018F000A577206A2062257714E0FEF7E1FEA0EBD1
:101900000800B04200D886B920684069C04340064C
:101910000BD544F8305F6773A573206940F0200051
:10192000206125730120BDE8F08120684169C94329
:101930004906D1D40020F6E770B516460D46044698
:101940001EE02046FFF704FE08B1012070BD681CB0
:1019500016D0FEF7B5FE801BA84200D885B92068D6
:101960004069C04300060BD5002044F8300F202109
:101970006173A073216941F0200121612073E4E7C4
:1019800020684069C0430006DBD4002070BD000021
:1019900001484078704700008000002010B58EB0EC
:1019A0001C220B496846FEF75BFC0021684600F0EC
:1019B000F9F9084C06491C2220601C3107A8FEF7E3
:1019C0004FFC002107A800F0EDF960600EB010BDDB
:1019D000E0270008000000200D4808B5816941F0AB
:1019E00020018161816901F020010091816941F04C
:1019F00004018161816901F004010091816941F074
:101A000008018161806900F00800009008BD0000B5
:101A1000001002400D4810B50B4901600C494160AF
:101A200000214FF480428160C0E90312416181616D
:101A3000C1610162FEF764FE002803D0BDE81040DA
:101A4000FEF7ADBC10BD000000540040EC020020C9
:101A5000A0860100012000F099F9FBE7FEE7FEE710
:101A600010B5502080F31188BFF34F8FBFF36F8FF5
:101A700000F0EEFD18B104494FF0805008600020DE
:101A800080F3118810BD000004ED00E030B58FB088
:101A900028216846FEF716FC14210AA8FEF712FC5E
:101AA00001210804CDE900100024029402250491CC
:101AB000CDE907504FF4E01009906846FFF7B4FAFB
:101AC00008B172B6FEE70F20CDE90A054FF4806039
:101AD000CDE90C4002210AA80E94FFF7A9F90028CD
:101AE00001D072B6FEE70FB030BD704708B50020D8
:101AF0008DF800006946122000F0C0F880B99DF80A
:101B0000000044280CD10121002000F0C7F838B9AA
:101B10000320FEF747FC0321002000F0BFF808B1C6
:101B2000002008BDD621012000F0B8F802210F20C6
:101B300000F0B4F8012008BD2DE9F04F87B0FEF7A2
:101B4000BFFD4C4CA168401A642848D3FEF7B8FD8D
:101B5000A0602078002501260227B0B1012818D006
:101B6000022853D0032858D004286DD0052836D138
:101B70006570FEF7A5FDE168401A41F288318842A0
:101B80002DD3FEF79DFDE06028E0FFF7AFFFE0BB3F
:101B900024E0DFF8E0B005A90BF1100B0BF1020A0D
:101BA0000BF104090BF10608132000F067F878B96F
:101BB0009DF81400C00712D003A808211E228DE84A
:101BC0000700B422012352212B48FEF75DFE48B1E5
:101BD0006068401C60606570032800D3277007B000
:101BE000BDE8F08FBDF80C10A8F80010BDF80E107D
:101BF000ABF80010BDF81010AAF80010BDF81210D4
:101C0000A9F8001066706560E9E702E0FFF76EFF73
:101C100008B12670F7E7032029E0174F38680168FC
:101C200021F0010101603846FEF750FD3846FEF70D
:101C300067FD3868016841F001010160FFF756FF58
:101C40000028E6D1042012E00021084600F026F822
:101C50000320FEF7A7FB0121002000F01FF803205E
:101C6000FEF7A0FBFFF742FF0028D2D1052020702D
:101C7000B5E7000080000020EC0200200EB51E2217
:101C800000910123CDE9013240F080025221024847
:101C9000FEF7FAFD0EBD0000EC02002003B583B094
:101CA0001E23012204A98DE80E0040F080020123CA
:101CB00052210248FEF716FF05B000BDEC020020DD
:101CC0000148FFF79EBB000040030020F0B502680A
:101CD000194B1A4C1A4D4FF08047984205D0B84224
:101CE00003D0A04201D0A84203D122F070064A6876
:101CF0003243984205D0B84203D0A04201D0A84256
:101D000003D122F44074CA6822434C6922F0800255
:101D1000224302608A68C2620A688262984201D1E4
:101D200009690163012141610169C90703D00169A2
:101D300021F001010161F0BD002C014000040040D0
:101D400000080040FEE70907090E002804DB00F147
:101D5000E02080F80014704700F00F0000F1E02050
:101D600080F8141D7047FEF7A7FFFFF78FFEFFF7FF
:101D700033FEFFF74FFEFFF711FE00F00EF8FEE70F
:101D800001460020842900D0C81C704710B500B956
:101D9000012000F01FFB002010BD10B500F040FB3B
:101DA000002010BD7FB50D4604464169B0F908001A
:101DB00081B1A16971B1FFF7E3FFD4E905128DE8A4
:101DC0000700D4E900102B46226900F016FC0390AE
:101DD00004B070BDFFF7D4FF03A9CDE90001208A4C
:101DE0002B4682B2D4E9001000F0DAFB012801D0C2
:101DF0000020EDE70398EBE72DE9F041184C0F4682
:101E00000546E6682068001D00F01CFA38B9206815
:101E100090F82C1001208840216981432161681CC1
:101E200007D137B12168BDE8F0410E48091D00F027
:101E30004DBA20683544B5424560216805D2A06B93
:101E4000BDE8F041091D00F029BA606B091D00F0E2
:101E500025FAA06A854200D2A562BDE8F0810000A3
:101E600018000020640400202DE9F041054600F030
:101E700039FA2E4CA068401CA06020682C4F10B18D
:101E8000606940B32DE02560A068012829D10026B3
:101E900006EB860007EB800000F0F2F9761C072EB7
:101EA000F6D323488C3000F0EBF92148A03000F045
:101EB000E7F91F48B43000F0E3F91D48C83000F0DE
:101EC000DFF91B48DC3000F0DBF919488C30606327
:101ED0001430A06305E02068E96AC06A884200D82F
:101EE0002560606A401C6062E96A012022698840BE
:101EF0001043206101EB810007EB8000291D00F0F9
:101F0000E5F900F00FFA606900280CD02068E96A52
:101F1000C06A884207D207494FF080500860BFF37B
:101F20004F8FBFF36F8FBDE8F081000018000020D5
:101F30008803002004ED00E010B5044690F851003D
:101F400058B101280CD002280FD0502080F31188FE
:101F5000BFF34F8FBFF36F8FFEE7206B00F0F6F9F2
:101F60002046BDE8104000F0F1B910BD10484FF414
:101F70004061420706D0C01D0D4920F00700411AFC
:101F8000C1F540610B4A00230144C2E9000308394E
:101F9000183A21F0070111604B600B600B1AC0E981
:101FA000001393604FF00040536050617047000091
:101FB000780400206C000020144E154CA6F1C807D0
:101FC0004FF08058DFF84C9012E000BF00F08AF923
:101FD000F068C568281D00F035F9A068401EA060B3
:101FE0006068401E606000F09DF92846FFF7A4FF7E
:101FF00060680028EAD138680128F9D9C9F800805A
:10200000BFF34F8FBFF36F8FF2E700005004002043
:102010001800002004ED00E02DE9F0479A46DDE9C4
:10202000098481466FF00303206B03EB82021044A6
:10203000089E20F00707780707D0502080F311880A
:10204000BFF34F8FBFF36F8FFEE7002561B1002014
:1020500023180A5C83F834200A5C12B1401C102853
:10206000F6D384F8435001E084F83450072E00D3AF
:102070000626E662C4E91165201D00F00CF904F1A2
:10208000180000F008F92461C6F107006462A0613D
:10209000E56484F8505052464946384600F0C0F88E
:1020A0002060B8F1000F01D0C8F80040BDE8F0870B
:1020B00030B5114900E011460A688242FBD34B68F3
:1020C0005C18844203D1406818444860084643685D
:1020D0001C18944209D1084C183C2468A24209D02B
:1020E00052681A4442600A6812680260814200D055
:1020F000086030BD0460F9E76C0000200648416BC1
:10210000096829B1416BC968C9684968816270472B
:102110004FF0FF31FAE7000018000020084840683F
:10212000401C4FF0500080F3118804D0BFF34F8F54
:10213000BFF36F8FFEE7BFF34F8FBFF36F8FFEE7E5
:10214000740000202DE9F0410546002700F09EF9BB
:10215000324E306808B9FFF709FF706905424ED169
:10216000C5B3083568070ED005F00700C0F10800B8
:102170000544680707D0502080F31188BFF34F8FC4
:10218000BFF36F8FFEE72DB37068854237D82348C1
:10219000183001460C6801E020460C466168A942EF
:1021A00002D221680029F7D131688C4227D0076814
:1021B0002168016060680837411B10290FD9601938
:1021C000420708D0502080F31188BFF34F8FBFF330
:1021D0006F8FFEE713E041606560FFF769FF61689C
:1021E0007068401A7060B268904200D2B060706946
:1021F00001430020C4E90001F068401CF06000F0D9
:102200008DFA780707D0502080F31188BFF34F8FE5
:10221000BFF36F8FFEE73846BDE8F0815400002021
:1022200010B5031F4FF080741C601B1F21F00101CB
:102230001960191F024B0B60143940380A6010BD39
:102240001D210008D0E9013201699A60D0E901231B
:102250005A604A68824201D182684A600022026163
:102260000868401E0860086870470000034B036060
:1022700003F154000860802010607047980000202F
:1022800000F108014FF0FF32C0E90112C1600161A5
:1022900000210160704700210161704730B50B6873
:1022A0005A1C02D000F1080202E0026904E0224652
:1022B000546825689D42FAD953684B6099608A60DA
:1022C000516008610168491C016030BD42684A6084
:1022D00093688B6093685960916008610168491C3C
:1022E00001607047502080F31188BFF34F8FBFF318
:1022F0006F8F0A494868401C486001280CD1084883
:10230000006810F0FF0F07D0502080F31188BFF352
:102310004F8FBFF36F8FFEE77047000074000020FF
:1023200004ED00E00849486828B1401E486001D12A
:1023300080F311887047502080F31188BFF34F8FCE
:10234000BFF36F8FFEE700007400002070B5002817
:102350002AD0164DA0F1080460686969084207D1C7
:10236000502080F31188BFF34F8FBFF36F8FFEE7CC
:1023700022683AB1502080F31188BFF34F8FBFF32A
:102380006F8FFEE78843606000F080F860686968DE
:10239000084468602046FFF78BFE2869401C2861CE
:1023A000BDE8704000F0BAB970BD000054000020D4
:1023B0004FF0E02000210161816105494FF47A72FC
:1023C0000968B1FBF2F1491E4161072101617047C3
:1023D0001400002010B5020014D00F48006B38B173
:1023E000502080F31188BFF34F8FBFF36F8FFEE74C
:1023F00000F04CF800211046FFF7FEFC00F08EF9CB
:10240000002807D105494FF080500860BFF34F8F77
:10241000BFF36F8F10BD00001800002004ED00E036
:1024200010B586B00024039405AA04A903A8049457
:10243000FFF71CFFDDE903010094CDE90110002343
:102440000EA11048059A00F0D8F80F490028C8627C
:1024500011D0502080F31188BFF34F8FBFF36F8FDF
:102460004FF0FF30886201204861CC6006B0BDE8C3
:10247000104000F041B806B010BD000049444C4582
:1024800000000000B91F0008180000200248016B7E
:10249000491C016370470000180000201448016BBC
:1024A00011B10121C16170470021C1610169B1FA17
:1024B00081F1C1F11F0101EB81020E4951F8223077
:1024C0006BB101EB820101F108034A6852684A606E
:1024D0009A4201D152684A60D16801607047502029
:1024E00080F31188BFF34F8FBFF36F8FFEE70000BB
:1024F00018000020880300201CB5264908780190A8
:10250000FF20087008788DF800009DF800009DF805
:10251000002000F0F000904207D0502080F3118896
:10252000BFF34F8FBFF36F8FFEE79DF800001A4C8B
:1025300000F0500020700720A06005E09DF800200A
:1025400052008DF80020401E9DF800201206F5D4A0
:10255000A060032807D0502080F31188BFF34F8F6D
:10256000BFF36F8FFEE74FF44070A06001980870D2
:102570000A48016841F470010160016841F070414E
:102580000160FFF715FF00206060FDF70FFE0020DF
:102590001CBD000000E400E07400002020ED00E01D
:1025A0002DE9FF5F8346DDE90E87994616468A4688
:1025B0009000FFF7C7FD05001CD05420FFF7C2FDB7
:1025C000040014D00020256384F85100CDE90240B6
:1025D000CDE900874B46324651465846FFF71CFD71
:1025E0002046FFF741FC012004B0BDE8F09F2846DB
:1025F000FFF7ACFE4FF0FF30F6E7F0B585B0DDE950
:102600000B640A9DA6B1DCB154270097266302260D
:1026100084F85160002604AFCDE90246CDE90057A9
:10262000FFF7FAFC2046FFF71FFC049805B0F0BD49
:10263000502080F31188BFF34F8FBFF36F8FFEE7F9
:10264000502080F31188BFF34F8FBFF36F8FFEE7E9
:102650002DE9F0412F4C0026206B28B1A069401CC9
:10266000A0613046BDE8F081E5686D1CE56013D1DE
:10267000606B006838B1502080F31188BFF34F8F32
:10268000BFF36F8FFEE7606BA16B6163A063206A8D
:10269000401C2062FFF732FDA06ADFF87C80854293
:1026A00009D3606B0068A0B1606BC068C7687868C8
:1026B000854211D2A0622068C06A00EB800158F800
:1026C0002100012800D90126E0690028C9D001268F
:1026D000C7E74FF0FF30EDE7381DFFF7B3FDB86AED
:1026E00018B107F11800FFF7ADFDF96A0120226962
:1026F00088401043206101EB810108EB8100391D06
:10270000FFF7E4FDF86A2168C96A8842C9D3012647
:10271000C7E7000018000020880300202DE9F047DB
:102720002C4D00242746286B38B1FFF7DBFD286BC2
:10273000401E2863286B40B146E0502080F311888A
:10274000BFF34F8FBFF36F8FFEE7A968224E0120C2
:10275000D1B3A6F1B40980463068E8B1F068C46826
:1027600004F11800FFF76EFD201DFFF76BFDE06A16
:102770002A6908FA00F11143296100EB800109EB95
:102780008100211DFFF7A2FDE06A2968C96A88421D
:10279000E2D3C5F81C80DFE70CB1FFF7AFFCAC69F2
:1027A00044B14646FFF754FF00B1EE61641EF9D113
:1027B0000020A861E86938B1084901273807086096
:1027C000BFF34F8FBFF36F8FFFF7ACFD3846BDE807
:1027D000F0870000180000203C04002004ED00E019
:1027E00044280008551A00080000000000000000FE
:1027F00080000000000000000000000050280008D9
:102800008D030008000000000000000080000000B0
:10281000000000000000000001020203040506079A
:1028200008090A0B0C0D0E0F10100000000000002C
:10283000000001020304060708090000000001026D
:10284000030400004D61696E5461736B0000000069
:10285000436F6C6F75725461736B00007C280008C5
:10286000000000209800000028010008142900083A
:1028700098000020401600004401000800000000FD
:102880000000000001000000100000000000000037
:1028900000127A00000000000000000000000000AC
:1028A0000000000000000000000000000000000028
:1028B0000000000000000000000000000000000018
:1028C0000000000000000000000000000000000008
:1028D00000000000000000000000000000000000F8
:1028E00000000000000000000000000000000000E8
:1028F00000000000AAAAAAAA000000000000000030
:1029000000000000000000000000000000000000C7
:0429100000000000C3
:04000005080000ED02
:00000001FF
